:020000040000fa
:080000000002040000000000f2
:020000040000fa
:04000800840a000066
:020000040000fa
:04000c00840a000062
:020000040000fa
:04001000840a00005e
:020000040000fa
:04001400840a00005a
:020000040000fa
:04001800840a000056
:020000040000fa
:04001c00840a000052
:020000040000fa
:04002000840a00004e
:020000040000fa
:04002400840a00004a
:020000040000fa
:04002800840a000046
:020000040000fa
:04002c00840a000042
:020000040000fa
:04003000840a00003e
:020000040000fa
:04003400ac07000015
:020000040000fa
:04003800840a000036
:020000040000fa
:04003c00840a000032
:020000040000fa
:04004000840a00002e
:020000040000fa
:04004400200a00008e
:020000040000fa
:04004800280a000082
:020000040000fa
:04004c00840a000022
:020000040000fa
:04005000840a00001e
:020000040000fa
:04005400d0040000d4
:020000040000fa
:04005800120500008d
:020000040000fa
:04005c001c03000081
:020000040000fa
:04006000840a00000e
:020000040000fa
:04006400840a00000a
:020000040000fa
:04006800840a000006
:020000040000fa
:04006c00840a000002
:020000040000fa
:04007000840a0000fe
:020000040000fa
:04007400840a0000fa
:020000040000fa
:04007800840a0000f6
:020000040000fa
:04007c00840a0000f2
:020000040000fa
:04008000840a0000ee
:020000040000fa
:04008400840a0000ea
:020000040000fa
:04008800840a0000e6
:020000040000fa
:04008c00840a0000e2
:020000040000fa
:04009000840a0000de
:020000040000fa
:04009400740a0000ea
:020000040000fa
:040098007c0a0000de
:020000040000fa
:04009c00840a0000d2
:020000040000fa
:0400a000c80500008f
:020000040000fa
:0400a4000006000052
:020000040000fa
:0400a800840a0000c6
:020000040000fa
:0400ac00840a0000c2
:020000040000fa
:0400b000840a0000be
:020000040000fa
:0400b400840a0000ba
:020000040000fa
:0400b800840a0000b6
:020000040000fa
:0400bc00840a0000b2
:020000040000fa
:0400c000840a0000ae
:020000040000fa
:0400c400840a0000aa
:020000040000fa
:0400c800840a0000a6
:020000040000fa
:0400cc00840a0000a2
:020000040000fa
:0400d000840a00009e
:020000040000fa
:0400d400840a00009a
:020000040000fa
:0400d800840a000096
:020000040000fa
:0400dc00840a000092
:020000040000fa
:0400e000840a00008e
:020000040000fa
:0400e400840a00008a
:020000040000fa
:0400e800840a000086
:020000040000fa
:0400ec00840a000082
:020000040000fa
:0400f000840a00007e
:020000040000fa
:0400f400840a00007a
:020000040000fa
:0400f800840a000076
:020000040000fa
:0400fc00840a000072
:020000040000fa
:04010000840a00006d
:020000040000fa
:04010400840a000069
:020000040000fa
:04010800840a000065
:020000040000fa
:04010c00840a000061
:020000040000fa
:04011000840a00005d
:020000040000fa
:04011400840a000059
:020000040000fa
:04011800840a000055
:020000040000fa
:04011c00840a000051
:020000040000fa
:04012000840a00004d
:020000040000fa
:04012400840a000049
:020000040000fa
:04012800840a000045
:020000040000fa
:04012c00a205000028
:020000040000fa
:04013000460600007f
:020000040000fa
:04013400840a000039
:020000040000fa
:04013800840a000035
:020000040000fa
:04013c00840a000031
:020000040000fa
:04014000840a00002d
:020000040000fa
:04014400840a000029
:020000040000fa
:04014800840a000025
:020000040000fa
:04014c00840a000021
:020000040000fa
:04015000840a00001d
:020000040000fa
:04015400840a000019
:020000040000fa
:04015800840a000015
:020000040000fa
:04015c00840a000011
:020000040000fa
:04016000840a00000d
:020000040000fa
:04016400840a000009
:020000040000fa
:04016800840a000005
:020000040000fa
:04016c00e2060000a7
:020000040000fa
:040170006c06000019
:020000040000fa
:040174009c060000e5
:020000040000fa
:04017800840a0000f5
:020000040000fa
:04017c00840a0000f1
:020000040000fa
:04018000840a0000ed
:020000040000fa
:0401840086070000ea
:020000040000fa
:040188000807000064
:020000040000fa
:04018c004007000028
:020000040000fa
:04019000840a0000dd
:020000040000fa
:04019400840a0000d9
:020000040000fa
:04019800840a0000d5
:020000040000fa
:04019c00840a0000d1
:020000040000fa
:04020800840a000064
:020000040000fa
:04020c00840a000060
:020000040000fa
:04021000840a00005c
:020000040000fa
:04021400840a000058
:020000040000fa
:04021800840a000054
:020000040000fa
:04021c00840a000050
:020000040000fa
:04022000840a00004c
:020000040000fa
:04022400840a000048
:020000040000fa
:04022800840a000044
:020000040000fa
:04022c00840a000040
:020000040000fa
:04023000840a00003c
:020000040000fa
:04023400ac07000013
:020000040000fa
:04023800840a000034
:020000040000fa
:04023c00840a000030
:020000040000fa
:04024000840a00002c
:020000040000fa
:04024400200a00008c
:020000040000fa
:04024800280a000080
:020000040000fa
:04024c00840a000020
:020000040000fa
:04025000840a00001c
:020000040000fa
:04025400d0040000d2
:020000040000fa
:04025800120500008b
:020000040000fa
:04025c001c0300007f
:020000040000fa
:04026000840a00000c
:020000040000fa
:04026400840a000008
:020000040000fa
:04026800840a000004
:020000040000fa
:04026c00840a000000
:020000040000fa
:04027000840a0000fc
:020000040000fa
:04027400840a0000f8
:020000040000fa
:04027800840a0000f4
:020000040000fa
:04027c00840a0000f0
:020000040000fa
:04028000840a0000ec
:020000040000fa
:04028400840a0000e8
:020000040000fa
:04028800840a0000e4
:020000040000fa
:04028c00840a0000e0
:020000040000fa
:04029000840a0000dc
:020000040000fa
:04029400740a0000e8
:020000040000fa
:040298007c0a0000dc
:020000040000fa
:04029c00840a0000d0
:020000040000fa
:0402a000c80500008d
:020000040000fa
:0402a4000006000050
:020000040000fa
:0402a800840a0000c4
:020000040000fa
:0402ac00840a0000c0
:020000040000fa
:0402b000840a0000bc
:020000040000fa
:0402b400840a0000b8
:020000040000fa
:0402b800840a0000b4
:020000040000fa
:0402bc00840a0000b0
:020000040000fa
:0402c000840a0000ac
:020000040000fa
:0402c400840a0000a8
:020000040000fa
:0402c800840a0000a4
:020000040000fa
:0402cc00840a0000a0
:020000040000fa
:0402d000840a00009c
:020000040000fa
:0402d400840a000098
:020000040000fa
:0402d800840a000094
:020000040000fa
:0402dc00840a000090
:020000040000fa
:0402e000840a00008c
:020000040000fa
:0402e400840a000088
:020000040000fa
:0402e800840a000084
:020000040000fa
:0402ec00840a000080
:020000040000fa
:0402f000840a00007c
:020000040000fa
:0402f400840a000078
:020000040000fa
:0402f800840a000074
:020000040000fa
:0402fc00840a000070
:020000040000fa
:04030000840a00006b
:020000040000fa
:04030400840a000067
:020000040000fa
:04030800840a000063
:020000040000fa
:04030c00840a00005f
:020000040000fa
:04031000840a00005b
:020000040000fa
:04031400840a000057
:020000040000fa
:04031800840a000053
:020000040000fa
:04031c00840a00004f
:020000040000fa
:04032000840a00004b
:020000040000fa
:04032400840a000047
:020000040000fa
:04032800840a000043
:020000040000fa
:04032c00a205000026
:020000040000fa
:04033000460600007d
:020000040000fa
:04033400840a000037
:020000040000fa
:04033800840a000033
:020000040000fa
:04033c00840a00002f
:020000040000fa
:04034000840a00002b
:020000040000fa
:04034400840a000027
:020000040000fa
:04034800840a000023
:020000040000fa
:04034c00840a00001f
:020000040000fa
:04035000840a00001b
:020000040000fa
:04035400840a000017
:020000040000fa
:04035800840a000013
:020000040000fa
:04035c00840a00000f
:020000040000fa
:04036000840a00000b
:020000040000fa
:04036400840a000007
:020000040000fa
:04036800840a000003
:020000040000fa
:04036c00e2060000a5
:020000040000fa
:040370006c06000017
:020000040000fa
:040374009c060000e3
:020000040000fa
:04037800840a0000f3
:020000040000fa
:04037c00840a0000ef
:020000040000fa
:04038000840a0000eb
:020000040000fa
:0403840086070000e8
:020000040000fa
:040388000807000062
:020000040000fa
:04038c004007000026
:020000040000fa
:04039000840a0000db
:020000040000fa
:04039400840a0000d7
:020000040000fa
:04039800840a0000d3
:020000040000fa
:04039c00840a0000cf
:020000040000fa
:100400006f2324000eff27000e018800000000006b
:10041000000020000000e000020032000001200087
:100420002002880014000700390407000000e000e3
:1004300003003a00e0ce2e00110020000200370039
:100440000000200001002000810f70000100320038
:1004500014000700000020000000e000020032004d
:1004600000000200000000006a8b02000100000092
:100470000040da000000fe004440a9006034200083
:100480000000e000030032000020200090018800fe
:100490004440a800000006008a1f78008b1f7800e7
:1004a00000000600a1028800800478000000eb0034
:1004b0001f003700e284440054a0b4009905ba003c
:1004c000e284440054a0b4009906ba00e2844400d7
:1004d00054a0b4000006eb00476fde00fd07b20039
:1004e000ae018800636ce10003003a00eaff0700f8
:1004f0000000eb000e003700606ce10008003a00dd
:10050000004deb000a05e800020039003420ec0041
:100510000af0a0008b05e900f9ff3e000400370057
:100520006168e100010032000086eb000b0007006b
:1005300019c7ba001905ba000e04e00003003a001a
:100540000a00e000dbff3a0000000600fe07b200f0
:10055000ae0288008a047800f5ff37000cd0a300b3
:10056000e20f4d001c00390089027800354dba00b9
:100570000a05e800020039003420ec000af0a0006f
:100580008b05e9000f003200254dba000a05e8008e
:10059000020039003420ec000af0a0008b05e900cd
:1005a000080032000c00e0000600320015cdba0051
:1005b0000a05e800020039003420ec000af0a0002f
:1005c0008b05e9008984e80054a0b4000b00e0002a
:1005d000e2ff3a00000006009902ba00055d7800cb
:1005e0008b05e900f7ff3200c82ade00055d7800c0
:1005f0008b05e900f3ff32000c00e000f1ff320050
:1006000019ddba00eeff3700f29b04000100000084
:100610006671040001000000be72040001000000c9
:10062000b6730400010000003877040001000000e8
:10063000f4110400000000003600f800809fbe00a6
:10064000829fbe00849fbe00869fbe00889fbe0022
:100650000200fa0085a0a9002043a900584e80009e
:10066000694e8000001880008000eb00ae0c020094
:10067000000000000001be000800be008c0a02005d
:1006800000000000504e8800614e8800784e8000c7
:10069000894e8000101880008000eb00ae0c020034
:1006a000000000000001be000800be008c0a02002d
:1006b00000000000704e8800814e8800984e800037
:1006c000a94e8000201880008000eb00ae0c0200d4
:1006d000000000000001be000800be008c0a0200fd
:1006e00000000000904e8800a14e8800b84e8000a7
:1006f000c94e8000301880008000eb00ae0c020074
:10070000000000000001be000800be008c0a0200cc
:1007100000000000b04e8800c14e8800d84e800016
:10072000e94e8000401880008000eb00ae0c020013
:10073000000000000001be000800be008c0a02009c
:1007400000000000d04e8800e14e8800f84e800086
:10075000094f8000501880008000eb00ae0c0200b2
:10076000000000000001be000800be008c0a02006c
:1007700000000000f04e8800014f8800184f8000f4
:10078000294f8000601880008000eb00ae0c020052
:10079000000000000001be000800be008c0a02003c
:1007a00000000000104f8800214f8800384f800063
:1007b000494f8000701880008000eb00ae0c0200f2
:1007c000000000000001be000800be008c0a02000c
:1007d00000000000304f8800414f8800584f8000d3
:1007e000694f8000801880008000eb00ae0c020092
:1007f000000000000001be000800be008c0a0200dc
:1008000000000000504f8800614f8800784f800042
:10081000894f8000901880008000eb00ae0c020031
:10082000000000000001be000800be008c0a0200ab
:1008300000000000704f8800814f880010002000e9
:10084000000f780049003700e09e20001e004000a5
:10085000104078008040e800e09e20001e0040002c
:1008600001487800e09e20001e0040009040780083
:10087000a02224001e0040001040780080cf5000cd
:100880001c003400a02224001e004000904078008c
:10089000e09e20001e004000014878001e00780005
:1008a000c200dd00609c2000008040001004be00fb
:1008b0001e00780080004000209b20000080400047
:1008c00010007800cf80de00a80c020000000000bd
:1008d0000001be000800be008a0a020000000000fd
:1008e0001e017800c211dd00629c200002814100df
:1008f0000089be00e09e20001e00400010407800ed
:100900000004e000180032001e007800c200dd0084
:10091000609c2000008040001004be00e09e20008b
:100920001e004000104078000000fb00cf80de0079
:10093000a80c0200000000000001be000800be007c
:10094000560b020000000000300c02000000000006
:10095000800078001e00780000014000209b2000ed
:1009600000004100010878001e0fe8001e0078001a
:10097000ea0f5000b4ff36002003a90095a0a9009b
:100980000080fa004f04be004f03be004f02be00bd
:100990004f01be004f00be003600f90000400600c7
:1009a0003600f800809fbe00829fbe00849fbe007c
:1009b000869fbe000000fa008560a9005cf102007d
:1009c0000100000021a32000e09f20009ad2020035
:1009d0000100000028c8020001000000d04480008f
:1009e0000000e0000300320020a32000dc830200ae
:1009f000000000000000eb0010fd890030fd8100c8
:100a00000010a10030fd89000080fa004f03be00f5
:100a10004f02be004f01be004f00be003600f9007d
:100a200000400600809fbe000000fa008580a900fb
:100a300000000000010037000000000011118000dc
:100a400000202000008060000000e000faff3a0073
:100a500099c8bf000080fb000000e00003003200e6
:100a6000e10f50001e00320033003700d0a52000f7
:100a70009040780080a520001040780080cf500082
:100a80000f003100d0a52000104078008040e80021
:100a9000d0a5200001487800d0a5200010407800a3
:100aa0000080fb008000e900c0a42000008040001e
:100ab000104078000080fb00201188001e003700e5
:100ac000c0a520008040eb000148780020a2200053
:100ad0008040eb0001487800eca2a9001600370026
:100ae00091588000c0b02000104078000000fb004a
:100af000808f50000b003d00905880000000e800ff
:100b000090588800905880008000e900c0ab200019
:100b100000804000104078000000fb002011880099
:100b20000500370000b120008040eb00014878004c
:100b3000eca2a900000000000080fa004f00be00f7
:100b400000400600801f78000200fa008c20a900f7
:100b500010118000620060000000e000020032001e
:100b60002222a900070037001011800064006000f5
:100b70000000e000030032002242a9003011800092
:100b8000004f78000080fa004f0078000040060017
:100b90003600f800809fbe00829fbe00849fbe008a
:100ba000869fbe000200fa000000eb00000f7800f4
:100bb00087c0a90005003700b0118000000f780041
:100bc0001e007800f4c502000100000090118000b2
:100bd000610060000000e000f7ff3a0028c8020052
:100be000010000000080fa004f03be004f02be006b
:100bf0004f01be004f00be003600f9000040060065
:100c0000809fbe000000fa0087e0a90000000000fd
:100c1000010037000000000091118000002020003a
:100c2000008060000000e000faff3a009158800068
:100c3000c0b02000104078000000fb00808f500002
:100c40000b003d00905880000000e800905888009c
:100c5000905880008000e900c0ab20000080400078
:100c6000104078000000fb00a0118800040037004d
:100c700000b120008040eb0001487800ec62a90040
:100c80000080fa004f00be0000400600801f780080
:100c90000200fa008c40a900901180006200600000
:100ca0000000e000020032003222a90007003700f5
:100cb00090118000640060000000e000030032003a
:100cc0003242a900b0118000004f78000080fa0085
:100cd0004f007800004006003600f800809fbe00fc
:100ce000829fbe00849fbe00869fbe000000fa0067
:100cf0008e40a900c03c23000ab30200010000009e
:100d0000207d2300104078000004e0000300320042
:100d1000c03c23007cb30200010000000080fa0008
:100d20004f03be004f02be004f01be004f00be0089
:100d30003600f90000400600809fbe000000fa0067
:100d40008e60a900000000000100370000000000d4
:100d50009112800000202000008060000000e00070
:100d6000faff3a00d482a900a17d8100607d810054
:100d7000808f50000c003100a07d81000000e80051
:100d8000a07d8900d482a800a07d81008000e900b8
:100d9000c0ba220000804000104078000000fb0034
:100da000a01288000400370020fb22008040eb00e6
:100db00001487800d482a9000080fa004f00be00ec
:100dc00000400600801f78000200fa008e20a90073
:100dd00090128000620060000000e000020032001b
:100de0005222a900070037009012800064006000c2
:100df0000000e000030032005242a900b01280005f
:100e0000004f78000080fa004f0078000040060094
:100e10003600f800809fbe00829fbe00849fbe0007
:100e2000869fbe000200fa008f00a9000000eb00c0
:100e3000000f780005003700b0158000000f780023
:100e40001e00780098cb0200010000009015800081
:100e5000610060000000e000f7ff3a00cccd020026
:100e6000010000000080fa004f03be004f02be00e8
:100e70004f01be004f00be003600f90000400600e2
:100e8000809fbe000000fa008f20a9000000000033
:100e900001003700000000009115800000202000b4
:100ea000008060000000e000faff3a0001e58100e8
:100eb000a0c92300104078000000fb00808f500084
:100ec0000b003d0000e581000000e80000e589001e
:100ed00000e581008000e900a0c4230000804000fc
:100ee000104078000000fb00a015880004003700c7
:100ef000e0c923008040eb0001487800d462a900db
:100f00000080fa004f00be0000400600801f7800fd
:100f10000200fa008ee0a9009015800062006000d7
:100f20000000e00002003200b222a90007003700f2
:100f300090158000640060000000e00003003200b3
:100f4000b242a900b0158000004f78000080fa007e
:100f50004f007800004006003600f800809fbe0079
:100f6000829fbe00849fbe00869fbe000000fa00e4
:100f70008460a90072d2020001000000f0c70200e4
:100f80000100000094cd020001000000809f2000bd
:100f900036d9020001000000c0b6200036d9020098
:100fa00001000000e0a5200036d902000100000089
:100fb000e08d220036d9020001000000c0be2300ef
:100fc00036d9020001000000a0cf230036d902006c
:100fd00001000000a0f8230036d902000100000043
:100fe00040ad220036d9020001000000a0ad220071
:100ff00036d9020001000000e0b5220036d9020017
:1010000001000000c0f9230036d9020001000000f1
:1010100080fa230036d902000100000000fc230002
:1010200036d902000100000080fd230036d90200fd
:1010300001000000e0fd230036d90200010000009d
:1010400060ff230036d902000100000000fd81008e
:10105000620060000000e0002100320000fd81001d
:101060000010a10000fd8900a01780006100600051
:1010700000f0a7000000ea000000e9004f00de00d9
:10108000004078000080fb0061006000a117800034
:101090000100a10001007000a0178800e04480005a
:1010a0000000e0000e003200a01780006100600028
:1010b00000f0a7000000ea000000e9004f00de0099
:1010c000004078000080fb006100600000004000ec
:1010d000a11780000110a10001007000a017880076
:1010e00096b4020001000000a04c80000000e8005f
:1010f000a04c8800a14c8000301f2000808f500041
:10110000190034009429ef0080502200104078002c
:101110000004e00014003200c04c80000000e00039
:10112000070032007050220090407800605022008a
:10113000104078004ebd020001000000040037009e
:101140008040eb000040eb004ebd020001000000bb
:10115000c04c800000f0a7000000ea000000e90099
:101160004f00de00c04c8800904c80000000e8007a
:10117000904c8800914c8000703e2000808f500081
:10118000a80034009229ef0070fc81000010a1003b
:1011900070fc890080ac220036d9020001000000fa
:1011a000e0ac220036d902000100000000f9230063
:1011b00036d902000100000060f9230036d9020090
:1011c0000100000020fa230036d9020001000000cf
:1011d000c0ae220036d902000100000020af22007c
:1011e00036d902000100000080af220036d902008b
:1011f0000100000040b0220036d9020001000000ca
:10120000e0af220036d9020001000000a0b02200a9
:1012100036d902000100000000b1220036d90200d8
:101220000100000060b1220036d902000100000078
:10123000c0b1220036d902000100000020b2220015
:1012400036d902000100000080b2220036d9020027
:1012500001000000e0b2220036d9020001000000c7
:10126000a0b3220036d902000100000040b32200e2
:1012700036d902000100000000b4220036d9020075
:101280000100000060b4220036d902000100000015
:10129000c0b4220036d902000100000020b52200af
:1012a00036d902000100000000ae220036d902004b
:1012b0000100000060ae220036d9020001000000eb
:1012c000e0fa230036d902000100000040fb2300b1
:1012d00036d9020001000000a0fb230036d902002d
:1012e0000100000060fc230036d90200010000006c
:1012f000c0fc230036d902000100000020fd2300bd
:1013000036d902000100000040b9220036d902009f
:1013100001000000a0b9220036d90200010000003f
:1013200060ba220036d902000100000040fe23000e
:1013300036d9020001000000a0fe230036d90200c9
:101340000100000000ff230036d902000100000068
:1013500000ba220036d9020001000000c0ff2300bd
:1013600036d90200010000002000240036d9020016
:10137000010000008000240036d9020001000000b6
:10138000e000240036d902000100000040012400e2
:1013900036d9020001000000a001240036d9020065
:1013a000010000000002240036d902000100000004
:1013b0006002240036d9020001000000c0022400af
:1013c00036d90200010000002003240036d90200b3
:1013d0000100000080b5220036d9020001000000a3
:1013e0008003240036d9020001000000e00324003d
:1013f00036d90200010000004004240036d9020062
:101400000100000000052400f0db020001000000e4
:1014100030fd81000000d100614060000080fb00d1
:10142000104588000080fa004f03be004f02be0046
:101430004f01be004f00be003600f900004006001c
:101440000000fa0084e0a9000080fa0000400600d5
:101450003600f800809fbe00829fbe00849fbe00c1
:10146000869fbe000000fa00a004240036d90200c6
:101470000100000000d023001c9d020001000000bc
:10148000e10f500002003a00029c0200010000003f
:1014900000e88100640060000000e0000a00320003
:1014a00000e88100680060000000e00006003200f3
:1014b000bca802000100000006a802000100000014
:1014c0005caa0200010000008500a9000080fa006b
:1014d0004f03be004f02be004f01be004f00be00d2
:1014e0003600f900004006000000fa008760a900fd
:1014f0000080fa00004006000000fa008780a90082
:101500000080fa00004006000040da000000fe0003
:101510000000050003f0a200889fbe008a9fbe0065
:101520008c1f780052010700590133006450e1001c
:101530004f0032006420e1005200320003826c0050
:1015400007003b000905d0000306d000820f5400bd
:101550000c065d00020039000200320089017800ab
:10156000030678008582550004003d000003fd005d
:101570008103fd008502ea008b854200840f720022
:1015800002003b0060001000e08018006011b8000d
:101590000005eb007a28e1000a0039000600780017
:1015a000c75ddd00f707b200878075002d003700aa
:1015b000828171000a017800610560008180d1009c
:1015c0000080d3008502e900f9ff3b0006044000db
:1015d0008784480002003b0060041400e0841c0083
:1015e0000988a300070032008a817100828171009e
:1015f000610164008904d1000884d3008b05e800f0
:10160000170037000978a30013003a000b00e00030
:10161000130034008b05e9000804440089844c0061
:101620000a4474000978a3000d003a000b00e000a2
:10163000070034008b05e9000804440089844c004d
:1016400001003a000b0020000978a300f7ff3200e8
:101650000001eb0002003700828171000a0178006e
:10166000c80007000cf0a70001f0a000110137002e
:101670006420e10002003a00838f6c001101330006
:101680000801be000200be000a0137000001eb00a5
:1016900048000700040032000200200003f8230085
:1016a00001f0a6009cff070000000600889fbe0016
:1016b0008a9fbe008c1f7800ed000700f400330005
:1016c00003866c006450e1002e0032006420e100cb
:1016d000330032006150e1002f0032006120e10050
:1016e0003100320085855500eb07b000090020006d
:1016f00008042000050037000804440089844c00d9
:101700000a0031000603430087834b0000015300a9
:1017100081815b00f8ff33000203be000800a000d7
:101720000804440089844c00f6ff3900c639dd0006
:101730008301730001003200130020008904d100ee
:101740000884d3000998a300050032000800a70010
:101750000300a0008904d1000884d3008b05e800b1
:101760008904d1000884d3000001eb000281d2007b
:101770008400070001f0a1000cf0a70001f0a00018
:10178000cc0037006420e100ce0032000801be002a
:101790000200be00f7ff37006120e100c9003200ff
:1017a0006000b800f3ff37000000200001f82700b8
:1017b000f0ff3700889fbe008a9fbe000003be0076
:1017c0009600070085057800828152000200200003
:1017d0006220e10004003a00f307b1000400350084
:1017e0007718e100040035000600be001400370041
:1017f0006000b8000f003700f50f2000faff2f003f
:101800008502d1000a85d3008301e900fcff3b007b
:101810008184620000046500890f7400f2ff3200c9
:101820008582ea000a85ea0081846200000465007e
:101830005400070007f0a70001f0a0000081eb00b2
:101840000200e0004f05be004f04be00000006008d
:101850001400200061023700f4ff2f005f02370000
:101860000001be006d0007000470a70003f0a10096
:101870006509b100160032000d0035006828e1004e
:1018800006003500f0ff2f00f1ff27000300e00005
:1018900013003b000100280000000500000040008c
:1018a000818048008502e900fcff3a00080037000b
:1018b000f88f420002003c008000eb0000000500b1
:1018c0008100d1000080d3008502e800fcff3a00cf
:1018d0000300e00002003b0060001000e080180000
:1018e000000006000001be004c0007000470a700c5
:1018f00003f0a10003f8a30013003a006509b1004a
:1019000010003200090035006928e10002003500ae
:101910000100280000000500000040008180480010
:101920008502e900fcff3a0000000600f88f420043
:10193000050035008100d1000080d3008502e80059
:10194000fcff3a00000006008000eb0000000500ec
:101950004f89de00820178003b0237006011b80039
:10196000490237000001eb0092ff0700040032003b
:101970000200200003f8230001f0a700e5fe0700a5
:101980000000060081002000618055000b003d0032
:101990000b00200061fe2f000100e1001d0034005b
:1019a00082817100610164008904d1000884d30040
:1019b0000000e800faff3a007100200061006400b6
:1019c000030070000200600009003200610444005e
:1019d000e0844c000988a500050032008b05e80072
:1019e0006808e10002003a008904d1000884d300ad
:1019f000f20f20000258e10005003d00c75ddd0048
:101a0000f907b20089807500080078000000060020
:101a10000bf827008b00780000000500c70ade00e5
:101a2000f107b200f50fb20008003200e1cf42002a
:101a3000020032000170a00024000500810f700038
:101a4000010032000408050044000500810f700009
:101a500002003a00140005008502e9000000400081
:101a600081c04800fcff3b000170a000240005007d
:101a70000004be00e9ff07000003be000405be002d
:101a80000200be00e5ff0700844f7500000006005d
:101a90000200be006450e100050036006420e10051
:101aa000020036000968a30001003a000800be00e9
:101ab0000160a0004f0678004f05be004f04be0035
:101ac00000000600f0ff2f00f1ff2700f9ff3700ac
:101ad000889fbe008a9fbe008c9fbe00b201070097
:101ae000850478000005be006420e10049003e0046
:101af0006220e10003003200090035000bf8a3006a
:101b0000440032000bf8a30008003200100220004d
:101b1000804d8800f0ff2f00f1ff27003d003700c7
:101b200001f82f00000020003a0037003d000700b8
:101b300078fe07000006be000a00be00324f2000fb
:101b400053f3230044ff0700060034000c00be00de
:101b5000340007006ffe07000006be000a00be004a
:101b6000020037008904e9000c00be002d000700c8
:101b70002e0007002b00070067fe07000001be00d3
:101b80000c00be00c9fe07000005be000001be003b
:101b9000260007000006be00a2f32300430d2c0020
:101ba0005dfe0700809fbe000c00be00d2e3270050
:101bb000d3f02b001d0007004f01be00bbfe070045
:101bc0000006be000a01be00180007000a01be00a0
:101bd00051fe07000006be006148b9005cff070027
:101be0000005be0032082800e3952b000f00070017
:101bf0000c01be0048fe07000006be000a00be0041
:101c00000200280013f32300080007000c01be00a7
:101c100041fe07004f06be004f05be004f04be0048
:101c20000000060003f0230002000500889fbe00ac
:101c30008a9fbe008c1f78008dff070094ff330041
:101c400003866c006450e100240032006420e1004f
:101c5000270032006150e100220032006120e100e3
:101c6000210032008b854200eb07b1000134b8003f
:101c7000003ab8000804420089844a00013ab800da
:101c80000030b8008880400009014a000400330099
:101c90000000400081804800020149008b05e900f6
:101ca000c909dd008301700001003200130020002b
:101cb000c814de004814dd004709de001200b2003f
:101cc000c808de00088470002eff070001f0a100a4
:101cd0000cf0a70001f0a00076ff37006120e100c2
:101ce00078ff32000801be000200be00f7ff370097
:101cf0006150e100fcff3a0072ff3700889fbe0090
:101d00008a9fbe0030044200b0844a0030054b0078
:101d100090854b006000b1000898be000a90be009c
:101d20000440e10005c8e10006d0e10007d8e10069
:101d300002003100680040001008e8004f05be00b6
:101d40004f04be0000000600889fbe008a9fbe00b0
:101d50003004be002005be000418540005985c0045
:101d600006185d0007985d00110020000440e100a6
:101d700005c8e10006d0e10007d8e1000100390004
:101d80008000eb00108810004f05be004f04be001d
:101d9000000006001200fa00889fbe008a9fbe0065
:101da0008c9fbe00e0b79f00f1b79f0082bf9f00ed
:101db00093bf9f000605be000404be000000eb00b8
:101dc000d0b79f00c0b79f00b0b79f00a0b79f00db
:101dd00090b79f000006eb005fb19700cfb097006f
:101de000820141003fb097000200e00004003d0086
:101df000370007007e805700c0ff07000300370050
:101e0000330007007e805700cfff0700dfb6970042
:101e10000d00e0000c0035006fb29700ffb2970094
:101e20000fbb97009fbb970010002000010020000f
:101e30006011b80000027200818272000203730018
:101e4000838373001b0007000c06e80001042000d8
:101e5000810f5600e0ff3a000d00e00004003d0055
:101e60000802be000a03be007e805700a3ff0700e1
:101e70005fa897000000e00005003a001fb297003d
:101e8000afb297003fb39700cfb3970009000700a8
:101e90006fb09700ffb097000fb997009fb99700f8
:101ea0004f06be004f05be004f04be000080fa0082
:101eb000000006000100070000000600a4b79f0014
:101ec000b5b79f00c6b79f00d7b79f0000000600b8
:101ed0004f09de0082817100b3b79f004f01de0021
:101ee0008180400082807000a1b79f008fb0970072
:101ef0004f09de00000040000200700090b79f0014
:101f00007fa897004f01de00818040008280700032
:101f100081b79f000d0007004f3ade00000040002f
:101f200004007000f0af9f000800070004024200a8
:101f300085824a0006034b0087834b00dfff0700c2
:101f40000802be000a03be00000006002fb2970080
:101f5000bfb297004fb39700dfb3970000000600b1
:101f6000881f780018002000881f780089ff07006c
:101f70008f87e9004f04780000000600801feb0007
:101f800084ff07008f87e90000000600889fbe00dd
:101f90008a9fbe00e00f5000e08f5800e00f59000c
:101fa000e08f59000c003d006044b8006055b80057
:101fb0000000540081805c0002015d0083815d00af
:101fc000180020001500070008003d001800070059
:101fd0000004eb00050037000004eb000f000700d1
:101fe00002003d001200070018002000dcff07007f
:101ff0000800e000060032006022b8006033b8003c
:102000000000520081805a0002015b0083815b0066
:102010004f05be004f04be0000000600e00f520056
:10202000e08f5a00e00f5b00e08f5b0000000600cd
:102030006044b8006055b8000402540085825c001a
:1020400006035d0087835d0000000600889fbe00d8
:102050008a9fbe008c1f7800e00f5000e08f580070
:10206000e00f5900e08f59000d003d006044b800ba
:102070006055b8000000540081805c0002015d00e2
:1020800083815d001c0020000820e10009a8e10018
:102090000ab0e1000bb8e1000d003d000800370078
:1020a0000006eb00e00f5200e08f5a00e00f5b00eb
:1020b000e08f5b0006003d006044b8006055b8004a
:1020c0000402540085825c0006035d0087835d0086
:1020d000aaff07000c00e000060032006022b800f2
:1020e0006033b8000000520081805a0002015b009a
:1020f00083815b004f0678004f05be004f04be0091
:1021000000000600889fbe008a9fbe008c1f7800da
:102110000006eb00e00f5000e08f5800e00f590080
:10212000e08f590007003d006044b8006055b800da
:102130000000540081805c0002015d0083815d002d
:102140001c002000e00f5200e08f5a00e00f5b00ff
:10215000e08f5b0007003d006044b8006055b800a8
:102160000402540085825c0006035d0087835d00e5
:102170000c00a200730007000c00e0000600320013
:102180006022b8006033b8000000520081805a001d
:1021900002015b0083815b004f0678004f05be00a3
:1021a0004f04be00000006000003be001bfe070037
:1021b0006220e100020032000600be0005000500ba
:1021c000e507b100f107b20004f02300848070003d
:1021d00007f0a70001f0a00024000500889fbe00c2
:1021e0008a9fbe00841f780021fe07004f00780000
:1021f00011003300f0ff2f00838f6c0006003b00be
:10220000040565000a00a7000800370009f0a600d1
:102210001000200008003700820f5400838f5c00fc
:10222000030039001000200001003e0000002000e3
:1022300009f0a7000000ea004f05be004f04be00f1
:102240000000e00000000600881f7800030478000a
:102250000300e00007003d0060001000e08018006f
:1022600060011900e081190002003b0001f02d001f
:10227000030037000400070008f0a70001f0a000e9
:102280004f04780000000600889fbe008a9fbe00b1
:102290000082700004027100048271002600320086
:1022a0000004be000200be006011b8006b092000ef
:1022b000950220000182cf000a0039000541b100db
:1022c0000082cf00070039000541b1000982cf002c
:1022d000040039000541b1000882cf000100390037
:1022e0000541b10005425200120032000a003b00d5
:1022f00082817100610164008100d1000080d300ff
:102300008984d3000884d3008b05e8000442e800e8
:10231000f7ff3a00070037000804440089844c00a6
:1023200000004800818048008b05e9000442e90074
:10233000f9ff3a0093fd07004f05be004f04be00b1
:1023400000000600889fbe008a9fbe008c9fbe00d2
:102350000404b8000506b8008904460060854e00f4
:102360000606b8000a054600e0854e000706b800dc
:102370008b054600040eb800890446000a854e000d
:10238000e0854d00050eb8000a0546008b854e001d
:10239000060eb8008b0546000416b8000a05460074
:1023a0008b854e000516b8008b054600041eb8004c
:1023b0008b0546000800be000a01be004f06be00a5
:1023c0004f05be004f04be000000060080017800eb
:1023d00002003700b15978000201e9000200e00074
:1023e000fcff3a0000000600881f78000204780015
:1023f00008017800f5ff0700080040004f0478004e
:10240000000006000000fa00881f78000004780031
:10241000ea8157003fb9970088007800401f2100eb
:10242000070007000000e000020035008040eb00dc
:10243000017478004f0478000080fa000000060064
:102440006200fa00889fbe008a1f780000057800ad
:1024500081047800020478008300780080f92f005e
:102460000f004000680607009a979f00a9979f00f9
:102470000000eb00b09f9f001885fb008a04fb0062
:102480000a05ea004f55de0050022000808f5400fc
:102490000d003200e10f55000b003a000a017800f0
:1024a000880078002f9097009f919700030001000b
:1024b000a0979f000000e0008e0032003f98970038
:1024c0000000e800b09f9f000a0444005002200072
:1024d000808f5400040032000900e000e6ff3a005b
:1024e0003f989700840037000000eb00909f9f000a
:1024f000809f9f00f0979f00e0979f00d0979f00dc
:10250000c0979f00070037004122240001005000bf
:10251000000040008121240061007800df989700ce
:1025200001007000d09f9f008804780009047800a3
:10253000384578008a00fb0040222400110407007f
:102540000000e000f0ff3a00a1c2b300814f550047
:102550000e003a00cf8897000180e900c08f9f00ed
:1025600010007800c09f9f000000e00005003d00c3
:102570000000ea00c09f9f005f9897000020a00025
:10258000d09f9f000904e8000f003700c09f9f0004
:102590000000eb0005003700f2ff2700820f50001b
:1025a000020032006a01b90002804000090478008c
:1025b00088047800b900fb000103b100e98f5000e6
:1025c000f5ff3600c09f9f00e0c2b300984f100097
:1025d000020032000080eb0019003700a0c2b300f7
:1025e000d84f100007003a00cf8897000180e9001b
:1025f000c08f9f0010007800a09f9f000804e80093
:10260000100037000000eb00a09f9f0088007800ba
:1026100005003700f3ff2700830f5000020032004f
:102620006a02b900040041000104780088007800c3
:102630003101fb000203b100e90f5100f5ff360044
:10264000a09f9f00984478008900fb00002124008f
:10265000cc0307000000e000020032000804e8009c
:10266000010037008044eb00c97f9f0080c6b300a3
:1026700080cf540004003a0098cf14000a003a00ba
:102680006640500006003700c0c6b30080cf54003b
:1026900005003a0098cf140003003a00654040005e
:1026a000c07f9f000804e8001801fb00e3fb2f0037
:1026b0008f81410081f92f008f804000a0f92f0009
:1026c0000f004000100007000000e00009003a0081
:1026d000e1fb2f008f804000a0f92f000f00400089
:1026e0000d0507000000e000020035000804e800c6
:1026f00061ff37000080eb004f0578004f04be00fb
:102700000080fa0000000600889fbe008a1f780043
:1027100000047800824478000305780070c6b30096
:1027200080cf54001a003c0000c0e90080cf540064
:10273000cd003d006d40500080cf54007700320046
:102740000b003c007140500080cf540035013c002c
:1027500000c0e90080cf5400c3003d0050c2b30068
:1027600080cf54002c0132007c404000050037002f
:1027700030c6b30080cf54001a0032001e003c0067
:1027800000c0e90080cf540026013a00b6003700af
:10279000f0c6b30080cf54006000320007003c0058
:1027a0006640500080cf5400130032006540400066
:1027b00080cf54001b013a00d400370050c7b3004b
:1027c00080cf5400550032006340400080cf540059
:1027d0005200320002c7b30082cf540011013a0008
:1027e000ff0037001181e90082087800780090002e
:1027f000127578001101370028609000c2c6b3003e
:10280000824f500007003a00110178006400510027
:10281000800878001000be004f89de008201780039
:102820001400370012c7b300824f500003003a0073
:10283000110278006800520005003700a2c6b300fc
:10284000824f500006003a009102780068805200e2
:10285000800878005001be004000be00050037002f
:102860001180e9008008780010007800cf80de0039
:102870006109b900009cbe000294be00286290006d
:1028800085c6b300854f52000d00320025c6b30047
:10289000854f520004003a000000fb00cf80de00ac
:1028a0006109b9000800370045c7b300854f5200e1
:1028b00003003200e6c24200854f520004003a0095
:1028c000cf80de006109b900009cbe000294be000a
:1028d0003802be002803be0078009000d1c2b300c9
:1028e000e00f5200e08f5a00e00f5b00e08f5b00ca
:1028f00008003500881090000118a3000200320083
:10290000b1c2b300030037000108a3005100320038
:1029100001c2b300017578004c00370028609000b8
:10292000c2c6b300824f500008003a00110378007d
:1029300064005300800878001002be006033b800c5
:102940000400be000601be001400370012c7b30029
:10295000824f500003003a009102780068805200d4
:1029600005003700a2c6b300824f500006003a00af
:102970001103780068005300800878005001be0001
:102980004000be00050037001180e9008008780093
:10299000100078008000eb006011b800009cbe00c1
:1029a0000294be002862900085c6b300854f520095
:1029b0000d00320025c6b300854f520004003a00d6
:1029c0000080fb008000eb006011b80008003700b9
:1029d00045c7b300854f520003003200e6c24200f3
:1029e000854f520004003a008000eb006011b800ef
:1029f000009cbe000294be00081090000038a300a6
:102a0000140032003800be002801be00e00f500064
:102a1000e08f5800e00f5900e08f59000d003200a0
:102a200080c7b30080cf54000300320080c5b300dc
:102a300080cf540007003a007800900001c3b30033
:102a4000017578000000e800097578000000e800d2
:102a50007004980078009000000545006a04980012
:102a6000894078006900370028619000c0c4b30035
:102a7000804f510006003a009103780068805300af
:102a8000800878005001be004000be0005003700fd
:102a90001101780064005100800878001000be0029
:102aa000df050700009cbe000294be00b800900045
:102ab000780090000100e00002003d00d1c2b300a8
:102ac00008003700881090000118a30002003200af
:102ad000b1c2b300030037000108a30004003200b4
:102ae00001c2b300017578000000e800700498008e
:102af00078009000000545006a0498008900fb00fa
:102b000008007800530007004e003700286190004d
:102b1000c3c6b3001180e900834f51002400320086
:102b20000a003c00e4c15100834f510027003200ed
:102b300083c1e800834f51001500320020c6b30066
:102b4000804f510020003a000a00370043c7b3000d
:102b5000834f51001d003200e6c14100834f5100f8
:102b60001a00320010c7b300804f510016003a001f
:102b7000060037001180e900800878001000780016
:102b8000485c9000084878002e0037001180e9006a
:102b90008008780010007800680a9000cfa2de005c
:102ba000612bb9000498be000690be0025003700d6
:102bb000800878001000780068099000cf91de004e
:102bc0000288be001f0037001180e90080087800ed
:102bd00010007800680c9000080878001900370091
:102be0001181e9008208780012027800cfa2de008d
:102bf000612bb900049cbe000694be00f800900052
:102c0000010545006a0498008040780008007800bb
:102c1000920207000b0037007800900009757800d9
:102c20000600370078009000000545000904e00028
:102c300001003a0059c2b300094d78000000e800d5
:102c4000700498000000eb004f0578004f04be00b0
:102c5000000006002f04b000889fbe008a9fbe00bf
:102c60008c9fbe008e1f78000007780081f79f00c0
:102c70003e04be002e05be005e0890000000e0008d
:102c800002003d0060002000500f98008e00780088
:102c900020fb2f000f00400046020700e20f50000b
:102ca0000a003a0030002000100f9800b1c9b300ac
:102cb0000ff097008140400040102400e1cf500009
:102cc0000d003e00001024000b0037000000e00063
:102cd0000f00340030002000100f9800b1c9b3007d
:102ce0000ff1970081404100c0102400e1cf500057
:102cf00001003e0080102400ee009000b0487800f3
:102d0000b06878001040780090409800f3003700d9
:102d10000000e00005003a0022fb2f000f014100f7
:102d2000001978008001eb00e70037006022b8004e
:102d30006033b8000800be000a01be00800407002e
:102d40000000e00001003d000bf0a20070592700d8
:102d50009f9897000088b900026a2800130020009d
:102d6000db040700640650009c9f9f0013003b009b
:102d700063061600c0ff2f00000666008c01ea0003
:102d8000939f9f000d1124000800be000a01be00a1
:102d9000070037000c08a300030032003d02be000c
:102da0002d03be006c0507000c86d100e8864600a6
:102db0000c00e000f7ff3c00180037000c00e000ba
:102dc00018003200c0ff2f00000666009c9f9f0085
:102dd0000d1124006000b8000200200003ff230052
:102de000070037000c08a300030032003d02be00bc
:102df0002d03be00580507000c86d100e88646006a
:102e00000c00e000f7ff3c000002be000203be0021
:102e10000800be000a01be00530407000004be0003
:102e20000205be00de08900060c6b3000ff29700f6
:102e3000804f5200040032006000200062c4b300e2
:102e4000824f520002003a009f9a97006a80420027
:102e500081004000f1b79f0001037800f30f530099
:102e60000200340037012000f7b79f0000c3b30011
:102e7000c0779f0056fb2f000f0343000e00780021
:102e8000a0b79f00060778003d0037000800be008d
:102e90000a01be00010507000006be007fb19700d1
:102ea00068015100f2b79f004240a9000c003400b5
:102eb000260507000002be000203be000800be0097
:102ec0000a01be009a0507006022b80046782d006e
:102ed00077192400200507000004be000205be008b
:102ee000e80047008e0020000802be000a03be0072
:102ef000b4b79f00c5b79f00d6b79f00e7b79f0044
:102f00000c01be00010478000c003700a400200072
:102f100005002000c0fd2f000f00400084010700c5
:102f20006fa89700ffa897000fb197009fb1970077
:102f300005c3b300056441000001be00e00f51006d
:102f4000e08f5900030034000e07e900e10f47004d
:102f5000eeff3a00880078003fb49700cfb49700a6
:102f60005fb59700efb597000200370000c3b300cc
:102f7000806078000e07e900fcff3b006887400096
:102f80007fb397000600e000070034006022b8001d
:102f90006033b8000800be000a01be00ed03070060
:102fa0000000e000b9ff3c000e0378002fb7970047
:102fb00051fb2f008f804000010353009f9b97001f
:102fc00067804300909f9f00020037000603e900de
:102fd0000000e900010178008200780003c3b3001b
:102fe000b1cf1100f9ff3200909f9f00de099000e1
:102ff00061c6b3000ff29700814f52000300320008
:1030000061c4b300814f520002003a000000e800a2
:103010000a0037001000200051c6b3008ff297005d
:1030200081cf5200050032000540780050c4b20044
:103030000080fb000000e9004f00de00830140003b
:10304000868f510001003400860178000300e00003
:103050001d00350000c3b300868f510006003d00ff
:1030600062c279006940400041c3b300814f520001
:1030700001003c00694050008300e90081004100ec
:1030800001003700840178000302e90001037800a1
:10309000a142780080cf5200faff320091c3b30002
:1030a000814f500001003a00054be8000400e000a9
:1030b00005003d000201e9008301e8001f9b970025
:1030c0000603e800969f9f008ff397008700fb00a0
:1030d0001f9a97000e007800060007004f0778003f
:1030e0004f06be004f05be004f04be002f04b100c6
:1030f00000000600f0874700889fbe008a9fbe0040
:103100008c9fbe008e1f78000004780081447800f8
:103110000205be00040678000b00e00002003c003f
:103120001b0020004a23240060c6b30080cf540057
:103130000e00320060c4b30080cf54000b00320098
:1031400070c6b30080cf54000300320070c4b300d7
:1031500080cf540081003a00e40f46007f00350024
:1031600058089000800f56007c003d000c06e800d7
:1031700060c6b30080cf54001000320060c4b300ba
:1031800080cf54000d003200081090000038a300da
:1031900004003a0058089000808f550001003d005f
:1031a0005b0c9800580890000c005000500c9800e0
:1031b00002003b000000eb00500c98001808900043
:1031c000e80090000c00e00026003c0002c3b300c1
:1031d000827078000000e800100c9800d808900079
:1031e0000100e00003003c00881090000138a300bb
:1031f00005003200e8009000e2c2b300827078005f
:103200000000e800100c9800580890008c00ea00bc
:10321000810f500001003d000006ea008c00ea002a
:10322000210c9800000646005c0c98008b0f56009d
:10323000010034000b0678003c0c9800e800900078
:1032400018089000008040000c0178008a00780087
:103250005efc0700580890000c0650004c0c9800cb
:10326000900037008c8f550018003d000080400012
:103270000b0178008a00780054fc070018089000c1
:1032800000804500100c98008b0556002b0c980010
:10329000d80890000100e00003003c008810900076
:1032a0000138a30006003200e8009000e2c2b3003b
:1032b00082707800380890000000e800300c980018
:1032c00058089000400c98007600370000804000bd
:1032d0000c0178008a0078003cfc07001808900078
:1032e00000004600100c98008c855500d80890000e
:1032f0000100e00003003c00881090000138a300aa
:1033000005003200e8009000e2c2b300827078004d
:103310000000e800100c980058089000808f5500bd
:103320000100340080057800e80090001808900043
:10333000008040008c0045000b01780023fc070052
:10334000180890000b004000100c980058089000de
:103350008b0550002b0c9800520037001808900085
:10336000e80090009a7078000000e800100c9800c7
:10337000d80890000100e00003003c008810900095
:103380000138a30005003200e8009000e2c2b3005b
:10339000827078000000e800100c98005808900037
:1033a0000000e000100034008b05e900808f55001c
:1033b0000100340080057800e800900018089000b3
:1033c000008040008a00e8000b017800fffb070046
:1033d000180890000b004000100c9800580890004e
:1033e0008b0550002b0c9800e80090001808900006
:1033f00000804000095878000007e8000c00e00059
:1034000004003500b1c2b300014878008e04780092
:1034100004003700d1c2b300014878008e04780060
:103420000c06ea007d8557008006eb000900370096
:10343000a20020008c007800728057003100070045
:103440007fb097008fb89700016d78000006780074
:103450008d06e8000c00e000f5ff3c000d00e000e8
:1034600009003a008e04780000c3b300805c780045
:10347000050037008d06e900fc80570061c07e0022
:1034800002c3b300825c40000d00e000f9ff3c0085
:10349000e8009000180890000080400080845400ec
:1034a000390c98000810900074006000f00f500074
:1034b0000e003a00980890007800900000804000cc
:1034c000a808900001004000b808900001004000ea
:1034d000c808900001004000f8089000810f5000db
:1034e00002003d0000805000000c98004f0778005b
:1034f0004f06be004f05be004f04be000f01b100d5
:103500000000060080027800010378001100090025
:103510000203d80080017800830a78000299b9007c
:103520000201530092029800050078000000060096
:10353000881f78008a9fbe008c9fbe000004780020
:103540000205be000406be000401be000a00be0063
:10355000df020700008cbe000c01be00090407005a
:103560000005550081855d002a0498003b04980001
:10357000080078004f06be004f05be004f047800db
:1035800000000600020037000304e00006003200dd
:103590000001780002007800b041780081cf51002e
:1035a000f9ff3a00010037000001eb00020078004b
:1035b00000000600889fbe0000047800e6844000fa
:1035c0001900d0004500de00f27f2000820f50007d
:1035d00010003a00000ceb00990478006f81640041
:1035e000200020001b003a00210190000200e000b2
:1035f00018003a00110190000200e00015003a00a6
:10360000100020001100e000120032002000200015
:10361000100037000000e00004003a0001007800cc
:10362000fb0107000000e00008003c00f200280059
:103630001901610001fe2300810c710021c02f00df
:10364000010c40000080eb0002003700000ceb0092
:103650000000eb004f04be0000000600fc8747009e
:10366000889fbe008a9fbe008c9fbe008e1f780080
:103670000006780080c5b30080cf50000a003200f9
:103680007740400080cf50000a003200694040007f
:1036900080cf50000b003200f01d240080bf9f003f
:1036a000ae0020000a003700e21c240082bf9f0009
:1036b00006003700f31d240083bf9f008e0020000a
:1036c00003003700f41d240084bf9f000e0120007a
:1036d0003c02be002c03be000605be000404be0072
:1036e00040c6b30080cf5000030032006540400068
:1036f00080cf50000b003a00e00f5200e08f5a00dc
:10370000e00f5b00e08f5b0006003d006000b8004a
:103710006011b80004045000858458000605590063
:1037200087855900e80f5700040032004000200050
:10373000f00f570038003a00010037003000200039
:10374000e00f5400e08f5c00e00f5d00e08f5d0053
:1037500004003a00dc0890008d0120000100e00028
:10376000060032008e00e900888060008fba970062
:10377000e5c07800f1ef9f007d0120008000780017
:103780008100e900050033008b05d1000a85d300d4
:103790008984d3000884d300f9ff3700089ebe0057
:1037a0000a96be00120037008d06e9008e00e9007f
:1037b000848060000fb99700e2c1780082fd2f007d
:1037c0000f01410003f17e00800078008100e900d4
:1037d000050033008783d1000683d3008582d300a0
:1037e0000482d300f9ff3700049ebe000696be0097
:1037f0003c02be002c03be00e00f5200e08f5a00d6
:10380000e00f5b00e08f5b008b0034000d00e000f8
:10381000e5ff3c00880037002c60900081c6b300b3
:10382000814f50000b00320006003c000004e00015
:1038300008003200e6c05000814f50004e003a00b0
:1038400004003700c1c6b300814f50004a003a005f
:10385000210037000800e00004003a005c089000f6
:103860008d0120000000e000060032001100090078
:103870000e84d8000fb99700e2c07800f1ef9f00e6
:103880007d012000110009000e84d8000a003700d5
:10389000110009000e04d8008d06e9000e81b90060
:1038a000020454008fb8970061417c0081fd2f0015
:1038b0008f80400082f07e00000478000800e00065
:1038c000020032000d00e000f1ff3c00cfc4de003a
:1038d000614db90025003700e00f5400e08f5c0017
:1038e00004003a005c0890008d0120000000e00018
:1038f000070032006171b9000800be001e03070016
:103900008fb99700e3417800f3ef9f007d0120001d
:103910006171b9000800be00070307000b00370003
:103920006171b9000800be00e90107008d06e900d9
:1039300000f1b900020454000fba9700e4427c0081
:1039400084fd2f000f02420005f27e000004be003d
:10395000e00f5000e08f5800020032000d00e00040
:10396000efff3c004fcdde008a057800089ebe00c8
:103970000a96be0030003700e00f5400e08f5c0074
:10398000e00f5d00e08f5d0004003a005c089000ed
:103990008d0120000000e000090032006172b900d2
:1039a000612bb9000800be000a01be0073f90700d0
:1039b0000fba970064427800f4ef9f007d01200069
:1039c0006172b900612bb9000800be000a01be0097
:1039d00063f907000d0037006172b900612bb9006f
:1039e0000800be000a01be0068f907008d06e90064
:1039f00000f2b900040454008fba970065427c00bd
:103a000085fd2f008f82420084f27e00009ebe0062
:103a10000296be003c04be002c05be00e00f540020
:103a2000e08f5c00e00f5d00e08f5d00020034007d
:103a30000d00e000e8ff3c00e80f570010003a00de
:103a40000c1090000038a3000d003200f78f5600d4
:103a500006003e0085fd2f008f824200e5c07e00fb
:103a600000c3b30080cf5000050032008d06e9008e
:103a700002c3b30081fd2f008f80400082f07e00e2
:103a800078811600120e98006c00900083fd2f00c4
:103a90008f8141008d8041004cfa07001c08900086
:103aa000dc089000810f500006003d0000805000af
:103ab000000e98000c1090000040a1000016980025
:103ac0000f0037000100e0000d003d008c10900059
:103ad000f4806000f08f500009003a007c099000eb
:103ae000fc009000810051000c0990008280500081
:103af000008050004240a90001003400000e9800f0
:103b00004f0778004f06be004f05be004f04be00b1
:103b1000cf01b100000006000400fa00889fbe003b
:103b20008a9fbe008c1f7800000478000106780090
:103b3000f80d9000780090008085550008089000ee
:103b40008085550018089000808555002808900051
:103b50008085550038089000808555004808900001
:103b6000808555000002220090bf9f0000032300c3
:103b7000a0bf9f00081090000028a30015003a0085
:103b80000b00e000130034000b0578008a04780075
:103b9000e20f55000100360029002000c801900006
:103ba00009017800ee8057005800900003000100e2
:103bb000500498000000e0008c003200680890007b
:103bc00009004000600c9800090555004240a9001a
:103bd000eeff3c00780190000200e0000c00340091
:103be000c80190008c00780058009000030001008c
:103bf000500498008080eb000000e0007c00320060
:103c0000e80890007800900000804000600c980068
:103c1000880c90000900e0001100340009057800cc
:103c2000e28f5400010036002a002000c8019000f5
:103c30000a017800ec805700580090000300010052
:103c4000500498000000e00068003200680890000e
:103c50000a004000600c98008a845400edff370091
:103c6000180990000200e0000c003400c801900028
:103c7000e8009000580090000300010050049800f4
:103c80008080eb000000e00059003200e80890005e
:103c90001808900000804000600c9800a80c90006c
:103ca0000900e0001100340009057800e28f54009b
:103cb000010036002a002000c80190000a017800a7
:103cc000ec80570058009000030001005004980059
:103cd0000000e00045003200680890000a00400043
:103ce000600c98008a845400edff3700380990007a
:103cf0000200e0000e003400e80090001808900078
:103d000080804000c801900058009000030001002e
:103d1000500498008080eb000000e0003400320086
:103d2000e80890003808900000804000600c98007f
:103d3000c80c90000900e00011003400090578006b
:103d4000e28f5400010036002a002000c8019000d4
:103d50000a017800ec805700580090000300010031
:103d6000500498000000e000200032006808900035
:103d70000a004000600c98008a845400edff370070
:103d8000081090008000eb000028a300180032000b
:103d90000b00e000160034008b0478000905780061
:103da000e28f5400010036002a002000c801900074
:103db0000a017800ee8057005800900003000100cf
:103dc000500498000000e0000800320068089000ed
:103dd0000a004000600c98008a8454004240a90008
:103de000eeff3c008000eb00010037008080eb001c
:103df000010078004f0678004f05be004f04be005a
:103e00000080fa00000006000108780000000600ab
:103e1000e6004000110178000500280085026100dd
:103e20006f01610082087800020032001200200059
:103e300011003700a0019000120020000300e000f4
:103e40000d003a00900190000300e0000a003a00e3
:103e50001000e00008003a0036003700640340001c
:103e60009608780080017800530b7800900978005c
:103e70000408780070015100110278000400e0008d
:103e8000f6ff32001300370064024000140378008c
:103e90004f33de0083814100830873008001780086
:103ea000d3037800cf3bde00140378000603430001
:103eb000068a73001302780004024200100378009f
:103ec0004f33de00860972009001780003884100bc
:103ed0000201e90091017800ef8f5100eaff3600fe
:103ee0001000370080017800530378004f33dd0065
:103ef0001002d100040873006402400094037800ab
:103f0000cf3bdd001303d1008689730011037800d5
:103f10004f33dd009401d100030a73009108d100f2
:103f20000201e80091017800ff8f5100edff3e0093
:103f3000ef8861009188720002007800000006009e
:103f40008f1fd100140207008f87e9000000e000f6
:103f500000000600809feb000f0207008f87e9003a
:103f60000000e000000006002800fa00889fbe0064
:103f70008a9fbe008c9fbe0003866b008f000700e7
:103f80006400e100440032006408e1004a003200ad
:103f90006100e100460032006108e10049003200a2
:103fa000ec0647006000b8003d02be003d03be00c5
:103fb000f48657006011b8003d04be003d05be0008
:103fc0007d0320000b0037000000a0008d06e900f3
:103fd000130032000402420085824a0006034b00af
:103fe00087834b00000040008180480002014900a7
:103ff000838149000802520089825a000a035b004b
:104000008b835b00f0ff3b000802420089824a007c
:104010000a034b008b834b008d06e900edff3a004d
:104020008482720086827200f707b2008782720073
:1040300001003200150020001e0490003e0b90008d
:1040400006035400e63fb0000368a30007003200f7
:104050000000a7000500a0008301d1000281d30069
:104060008180d3000080d3000603e8008301d100e3
:104070000281d3008180d3000080d3000002eb00d6
:104080000482d2002100070003f0a1000cf0a70079
:1040900003f0a0005d003700640247006408e100ff
:1040a000570032003400be003401be00f6ff370076
:1040b0006108e100520032006011b8006000b800f1
:1040c000f1ff370003ff270002002000fbff37004d
:1040d000839f68000100e00002003d0060001000c6
:1040e000e08018000300e00002003d0060011100c4
:1040f000e0811900100107004f00e00002003b00c2
:1041000060001000e0801800000006001800200089
:1041100057002000080453000d003d000600200059
:1041200097fc2f000740e1001e00340084827200db
:10413000610260008301d1000281d3008180d3003d
:104140000080d3000804e800f8ff3a004700200090
:104150006104600005047400040464000d00320072
:1041600061004000e080480060014900e0814900b2
:1041700003b8a500070032000603e8006538e10037
:1041800004003a008301d1000281d3008180d30072
:104190000080d300f87f20000830e10003003500e4
:1041a000080378006000b8006011b8004433dd00f7
:1041b000f300b200830173000000060068044700aa
:1041c0000294be000094be00fc0447008694be002a
:1041d0008494be0009007800b80107000800780048
:1041e000b601070099007800814f70000b003b007a
:1041f0000800be00910107004f00b1000300370026
:10420000f3ff2700f2ff2f006110b9004f06be0038
:104210004f05be004f04be000080fa0000000600fb
:1042200081037800fdf507000001be006000b800c2
:104230000478a30013003a006220e10015003e005c
:104240000d0039008301d1000281d3008180d300a9
:104250008301d1000281d3008180d3008301d1008a
:104260000281d3008180d3000538b000c42add006c
:10427000f300b2008381720007f0a70003f0a000f2
:1042800000000600f3ff2700f2ff2f006110b900c5
:10429000fbff370003ff2700f7ff37001400fa0089
:1042a000889fbe008a9fbe008c9fbe000004be0097
:1042b0000205be00680047000a90be000890be00dc
:1042c0007e0107000070a7000bf0a1003043200022
:1042d0009e02900080825200b0fe2f000028e10074
:1042e00011003d00b0fc2f000028e1001500340053
:1042f0001e0990008e0890007e0090000501b0001d
:104300000201d1008180d3000080d3008502e80043
:10431000fbff3a000b00e000bcff3b006000100018
:10432000e0801800b9ff3700f0ff2f00f1ff2700f1
:104330000b00e000b5ff3b0001002800000020005a
:10434000b2ff37006000b800b0ff37004f89de00d1
:1043500082017800800137002800fa00889fbe00a3
:104360008a9fbe008c9fbe0003866b0093ff0700f0
:104370000028a30064003a000128a30067003a0067
:104380000008a30062003a000108a30065003a009b
:104390001e009000be08900081064000ed3fb10075
:1043a000f4805700ee019000111ab8008e099000b9
:1043b000311bb8009e099000311cb800511db80097
:1043c000f485570046000700fe0190003a00070000
:1043d0008b85e8003e0007008e0990004000070032
:1043e000ee019000340007008b85e80038000700dc
:1043f0008e099000400007009e0990001b18b8002d
:10440000890440000a854800fe019000340007003e
:104410008b85e80038000700ee01900030000700af
:104420008e0990001b18b800890440000a854800d6
:104430000a98a30008003a000402420085824a005c
:1044400006034b0087834b0008044c0089844c0012
:104450000a054d008d06e900848272008502730012
:104460004c3add0085027200010032001500200088
:10447000443ade001400b2004538de00cb45dd00d2
:104480000b007000c540de00cb4ddd008b8070005e
:104490004549de00cb55dd000b017100c551de0042
:1044a0000d03780019ff070003f0a1000cf0a7002e
:1044b00003f0a00055ff37001b18b800850240002c
:1044c00006834800e0834b0060044c00070037007f
:1044d0001b18b8000603400087834800faff370026
:1044e0001b18b8008703400008844800e0844c0093
:1044f00060054d00000006001b18b80008044000cd
:1045000089844800faff37000108a3003cff3a0005
:104510005800be005801be00e3ff37000008a300aa
:1045200037ff3a0009047800f9ff37000000000067
:1045300007f0a2001a0037006022b800060220002f
:104540000000d0008180d2000482d2008582d20097
:104550000000a0000202520083825a0003003100d2
:104560000202420083824a000000a1000603e90023
:10457000f3ff3a0000000600efff07000400be0052
:1045800000000600020ab900001bb9000200b800d2
:10459000810042008100430000000600000000008e
:1045a0002800fa00889fbe008a9fbe008c9fbe0034
:1045b00007067800878669000c003b00030478003a
:1045c0008704780008f0a10009f0a100840f5000d2
:1045d000858f5800860f5900890f5c000300330057
:1045e0000cf0a20001003a000cf0a100f3fe07005d
:1045f0006400e1005f003200780147006408e100d8
:10460000610032006c014700748557003200be0023
:104610001201be003a04be001a05be001e0390003f
:10462000be0a90008503530006003d000004fd0013
:104630008104fd000205fd008305fd008703ea00fb
:10464000050378000df8a300040032006004140094
:10465000e0841c0060051d00e0851d006022b8009c
:104660007d0320000d38e1008006eb000b003900cf
:104670004433dd00f300b2008301730039003700da
:10468000848272000d027800e10664008b85d100ff
:104690000a85d3008984d3000884d3008703e90006
:1046a000f7ff3b0008004000898048000a014900ec
:1046b0008b81490004003b0060001000e08018007e
:1046c00060011900e08119000358a30009003200bd
:1046d0008d82720084827200610260008301d100c9
:1046e0000281d3008180d3000080d3000603e8005c
:1046f0001b0037000348a30017003a000600e00043
:10470000170034000603e9000d00a3000000480074
:104710008180480002014900838149000348a300c9
:104720000f003a000600e000090034000603e9002b
:104730000000400081804800020149008381490057
:1047400001003a000003eb000348a300f5ff32002c
:104750006022b80002003700848272006182660025
:104760006afe070003f0a1000cf0a70003f0a00010
:10477000a6fe3700640147006408e10002003a0029
:104780000df8a3009efe3a003200be001201be00ea
:104790009efe370000000000889fbe008a9fbe007a
:1047a0008c9fbe000404be000605be00809fbe00b4
:1047b000829fbe002f000700040678000800be009c
:1047c0000a01be002b000700840678004f03be00dc
:1047d0004f02be008d4f76007fb09700130033006c
:1047e000f0ff2f008b8f6b0006003b000d0666006c
:1047f0000c00a7000a00370007f0a60010002000f8
:104800000a003700880f5200898f5a008a0f5b0018
:104810008b8f5b00030039001000200001003e0078
:104820000000200007f0a7000000ea004f06be00cd
:104830004f05be004f04be0000000600e4824000a9
:104840001078a30007003200640240001178a30032
:104850003400be001401be00040032000330a70083
:10486000000006003500be001501be000330a000a8
:104870000000060005ff27000582610007003200e6
:104880000428e100010032002400050006000700b2
:1048900001003a004400050004080500020007007a
:1048a000f9ff3a00140005006f8261008102700078
:1048b0008502710085027200000006008000780009
:1048c0005002be005003be004439de00f700b200c3
:1048d000f37f200003016100090032000218e100ab
:1048e00016003a0085017200830173008381730012
:1048f0000008200015003a00400020001300370097
:1049000085017200830173008381730005003a0002
:1049100004a8be0006a8be00100020000b0037004f
:104920000201e9000402420085824a0006034b00ae
:1049300087834b000748a300f9ff32000740a0001f
:1049400004a8be0006a8be00200020008000980039
:104950009200980000000600881f78000304780089
:104960000300e00007003d0060001000e080180038
:1049700060011900e081190002003b0001f02d00e8
:10498000030037000400070008f0a70003f0a000b0
:104990004f04780000000600889fbe00008270006f
:1049a00004027100048271002400320036432000aa
:1049b000c50020008383cf000a0039000541b10003
:1049c0008283cf00070039000541b1008183cf0009
:1049d000040039000541b1008083cf000100390097
:1049e0000541b10085c353006022b80012003200b7
:1049f0000a003b0084827200610260008301d100e2
:104a00000281d3008180d3000080d3000603e80038
:104a10008743e800f7ff3a00070037000000400036
:104a20008180480002014900838149000603e900b2
:104a30008743e900f9ff3a00b4fd07004f04be00c8
:044a4000000006006c
:020000040000fa
:104a440044650000664d00006f640000653d000091
:104a54002025000069200000202000002020000004
:104a6400202000002020000020200000004600003c
:104a7400756e0000634d00006f640000653d00002a
:104a840020250000692000002020000020200000d4
:104a9400202000002020000020200000004600000c
:104aa400616e00005370000065650000643d000005
:104ab40020250000692000002020000020200000a4
:104ac40020200000202000002020000000530000cf
:104ad400503d00002025000069200000543d0000e6
:104ae4002569000020200000202000002020000074
:104af40020200000202000002020000020200000b2
:104b04002000000054440000656600004d6f000062
:104b1400646500003d20000025690000202000009d
:104b24002020000020200000202000002020000081
:104b340000540000467500006e6300004d6f0000d5
:104b4400646500003d20000025690000202000006d
:104b54002020000020200000202000002020000051
:104b64002000000054460000616e000053700000f5
:104b740065650000643d00002025000069200000f8
:104b84002020000020200000202000002020000021
:104b94002020000000540000535000003d2000007d
:104ba400256900002020000020500000575200001a
:104bb4003d25000069200000202000002020000086
:104bc4002020000020000000545f0000436f00001c
:104bd4006d7000005f4f0000757400003d20000000
:104be400313600002e310000312000002743000040
:104bf400005400005f4300006f6d0000705f000010
:104c040053750000633d000020330000362e000081
:104c1400343200002027000043000000545f0000ed
:104c2400436f00006e640000656e0000732e000088
:104c34003d200000313200002e38000031200000f9
:104c440027430000005400005f530000656100002a
:104c54005761000074650000723d000020360000ba
:104c64002e350000352000002743000020000000fe
:104c7400546500006d7000005f4100006d6200002b
:104c84003d200000252e0000326600002027000091
:104c940043200000202000002020000000540000d9
:104ca400656d0000705f00004c690000713d0000fc
:104cb40020310000312e0000333200002027000094
:104cc40043200000200000005072000065730000c3
:104cd4005f470000617300003d200000372e000094
:104ce40038310000204200006172000020200000e2
:104cf4000050000072650000735f00004c69000002
:104d0400713d000020320000362e000035350000d1
:104d1400204200006172000020000000436f000088
:104d24006d7500006e690000636100007469000025
:104d34006f6e000020530000746100007475000061
:104d4400733a000000430000524300002045000075
:104d5400727200003a25000069200000205400000f
:104d64006d7400003a250000692000002000000056
:104d740046720000616d000065200000457200006d
:104d8400723a0000302000002042000061750000eb
:104d9400643a000032200000004d00006f640000ff
:104da40042750000733a0000525400005520000080
:104db4004465000076690000636500003a33000032
:104dc40020000000434c0000454100005244000014
:104dd40041540000410d00000a000000444100005d
:104de400544100002c000000256900002c20000024
:104df400000d00000a000000524f0000572c000074
:104e040053450000542c0000320d00000a0000003d
:104e1400434c000045410000525300004845000047
:104e2400455400000d0a0000004c000041420000ff
:104e3400454c00002c540000656d0000705f0000bc
:104e4400536d0000616c00006c2c00005465000080
:104e54006d7000005f420000696700002c54000080
:104e6400656d0000705f000041690000724f000032
:104e7400757400002c50000072650000737300000c
:104e840075720000652e000047610000732c00005d
:104e940050720000657300007375000072650000b5
:104ea4002e4c00006971000075690000642c00003c
:104eb4005072000065730000737500007265000095
:104ec4002e4c000069710000756900006443000005
:104ed4006f6e0000642c000043790000636c0000d6
:104ee40065540000696d0000652c00002c2c000046
:104ef4002c2c00002c2c00002c2c00004b700000eb
:104f04002c4b0000692c00004b6400000d0a0000cb
:104f140000250000752c000020000000434500001f
:104f24004c4c00002c470000455400002c5000005d
:104f3400320d00000a000000434500004c4c000004
:104f44002c470000455400002c510000320d000095
:104f54000a000000434500004c4c00002c470000b0
:104f6400455400002c520000320d00000a000000dd
:104f74004c410000424500004c2c000054650000e8
:104f84006d700000657200006174000075720000ad
:104f9400652e0000436f00006d7000007265000014
:104fa400737300006f7200005f4f0000757400009f
:104fb40070750000742c0000546500006d700000d2
:104fc400657200006174000075720000652e0000b7
:104fd400436f00006d700000726500007373000081
:104fe4006f7200005f530000756300007469000075
:104ff4006f6e00002c540000656d000070650000a9
:105004007261000074750000726500002e43000098
:105014006f6e0000646500006e730000657200002e
:105024002c5000007265000073730000757200005c
:10503400652e000047610000732c000050720000d0
:105044006573000073750000726500002e4c00004b
:105054006971000075690000642c00005072000042
:105064006573000073750000726500002e4c00002b
:105074006971000075690000644300006f6e0000f0
:10508400642c00005379000073740000656d000007
:1050940043790000636c000065540000696d0000f2
:1050a400652c00002c2c00002c2c00002c2c000063
:1050b4002c2c00004b7000002c4b0000692c0000cd
:0c50c4004b6400000d0a0000000000001a
:020000040000fa
:1050d0000200fa00000f78000000eb00605b88001f
:1050e0001e007800705b8800805b80000000a000dc
:1050f000805b8800805b80000010a100805b8800de
:10510000000000000100370000000000805b80000c
:10511000620060000000e00004003a00c0a320002c
:10512000104078000004e000f7ff3200b0a120003a
:1051300010407800e84f50000a003200805b800089
:10514000620060000000e000060032003045800090
:105150000000e80030458800202a81000000e800b7
:10516000202a8900805b80000000a100805b88000d
:10517000805b80000010a100805b88000468ef0065
:10518000c0a3200010407800e14f500020003a00fa
:1051900040a320009040780090a1200010407800ab
:1051a00080c068000180fb000000e9004f00de00c5
:1051b0008040780050a3200010417800b0a120006a
:1051c00010407800004069000080fb000000e9000a
:1051d0004f00de000040780000c060008080fb00cf
:1051e000b2518000e05080000000690000f0a7008c
:1051f0000000ea000000e9004f00de0000806000cf
:105200000000e000020032000040eb000100370027
:1052100010c0b3000080fa00000006000c00fa0085
:1052200020479800314798002207980033079800dc
:1052300044079800254f98000040eb001047980065
:105240000040eb00004f7800150037001e4078004a
:105250000040e800004f78003e029000ae01900050
:105260003e419000ae40900080a1200004d3020097
:10527000010000004e00900095ff070010479800c5
:105280001e4090000004e00005003a00c0a320008a
:105290008040eb00014878000040eb003000370010
:1052a0002e4890009e40780080cf5000e7ff3500e8
:1052b0002e4090008000fb00e00c20000088b90028
:1052c00080007800e0c3200000804000900078005b
:1052d0000120a000010878002e4090008000fb0013
:1052e000e00c20000088b90080007800e0c32000b6
:1052f00000804000900078000130a1000108780093
:105300002e4090008000fb00e00c20000088b900d7
:1053100000007800c10c20008080400020b72000f1
:1053200000804000100078000000d1006140600063
:10533000e14f500006003a00204580000000e800e0
:1053400020458800102a81000000e800102a89000a
:10535000c0a320008040eb000148780010c0b300db
:105360000080fa00000006000c00fa0020479800b8
:10537000210798003207980043079800244f9800af
:1053800010c0b300104798000040eb00004f7800b9
:105390003a0037001e4078000040e800004f7800d7
:1053a0003e029000ae01900042c0b300ae409000bb
:1053b00080a1200004d30200010000004e009000f4
:1053c00043ff0700104798001e4090000080fb003c
:1053d0000000e9004f00de0080407800c2518000ec
:1053e000000028000000690000f0a7000000ea00ab
:1053f0000000e9004f00de000040780000c06000bf
:105400000004e00005003200c0a320008040eb0053
:10541000014878000040eb00480037001e40900033
:105420000080fb000000e9004f00de0080407800b3
:10543000c25180000080eb000000690000f0a7006e
:105440000000ea000000e9004f00de0000407800a4
