:020000040000fa
:080000000002040000000000f2
:020000040000fa
:04000800f6070000f7
:020000040000fa
:04000c00f6070000f3
:020000040000fa
:04001000f6070000ef
:020000040000fa
:04001400f6070000eb
:020000040000fa
:04001800f6070000e7
:020000040000fa
:04001c00f6070000e3
:020000040000fa
:04002000f6070000df
:020000040000fa
:04002400f6070000db
:020000040000fa
:04002800f6070000d7
:020000040000fa
:04002c00f6070000d3
:020000040000fa
:04003000f6070000cf
:020000040000fa
:04003400fe050000c5
:020000040000fa
:04003800f6070000c7
:020000040000fa
:04003c00f6070000c3
:020000040000fa
:04004000f6070000bf
:020000040000fa
:04004400f6070000bb
:020000040000fa
:04004800f6070000b7
:020000040000fa
:04004c00f6070000b3
:020000040000fa
:04005000f6070000af
:020000040000fa
:04005400bc030000e9
:020000040000fa
:04005800f6070000a7
:020000040000fa
:04005c000803000095
:020000040000fa
:04006000f60700009f
:020000040000fa
:04006400f60700009b
:020000040000fa
:04006800f607000097
:020000040000fa
:04006c00f607000093
:020000040000fa
:04007000f60700008f
:020000040000fa
:04007400f60700008b
:020000040000fa
:04007800f607000087
:020000040000fa
:04007c00f607000083
:020000040000fa
:04008000f60700007f
:020000040000fa
:04008400f60700007b
:020000040000fa
:04008800f607000077
:020000040000fa
:04008c00f607000073
:020000040000fa
:04009000f60700006f
:020000040000fa
:04009400f60700006b
:020000040000fa
:04009800f607000067
:020000040000fa
:04009c00f607000063
:020000040000fa
:0400a0002404000034
:020000040000fa
:0400a4002a0300002b
:020000040000fa
:0400a800f607000057
:020000040000fa
:0400ac00f607000053
:020000040000fa
:0400b000f60700004f
:020000040000fa
:0400b400f60700004b
:020000040000fa
:0400b800f607000047
:020000040000fa
:0400bc00f607000043
:020000040000fa
:0400c000f60700003f
:020000040000fa
:0400c400f60700003b
:020000040000fa
:0400c800f607000037
:020000040000fa
:0400cc00f607000033
:020000040000fa
:0400d000f60700002f
:020000040000fa
:0400d400f60700002b
:020000040000fa
:0400d800f607000027
:020000040000fa
:0400dc00f607000023
:020000040000fa
:0400e000f60700001f
:020000040000fa
:0400e400f60700001b
:020000040000fa
:0400e800f607000017
:020000040000fa
:0400ec00f607000013
:020000040000fa
:0400f000f60700000f
:020000040000fa
:0400f400f60700000b
:020000040000fa
:0400f800f607000007
:020000040000fa
:0400fc00f607000003
:020000040000fa
:04010000f6070000fe
:020000040000fa
:04010400f6070000fa
:020000040000fa
:04010800f6070000f6
:020000040000fa
:04010c00f6070000f2
:020000040000fa
:04011000f6070000ee
:020000040000fa
:04011400f6070000ea
:020000040000fa
:04011800f6070000e6
:020000040000fa
:04011c00f6070000e2
:020000040000fa
:04012000f6070000de
:020000040000fa
:04012400f6070000da
:020000040000fa
:04012800f6070000d6
:020000040000fa
:04012c007604000055
:020000040000fa
:040130009c0400002b
:020000040000fa
:04013400f6070000ca
:020000040000fa
:04013800f6070000c6
:020000040000fa
:04013c00f6070000c2
:020000040000fa
:04014000f6070000be
:020000040000fa
:04014400f6070000ba
:020000040000fa
:04014800f6070000b6
:020000040000fa
:04014c00f6070000b2
:020000040000fa
:04015000f6070000ae
:020000040000fa
:04015400f6070000aa
:020000040000fa
:04015800f6070000a6
:020000040000fa
:04015c00f6070000a2
:020000040000fa
:04016000f60700009e
:020000040000fa
:04016400f60700009a
:020000040000fa
:04016800f607000096
:020000040000fa
:04016c00d8050000b2
:020000040000fa
:04017000c2040000c5
:020000040000fa
:040174000c05000076
:020000040000fa
:04017800f607000086
:020000040000fa
:04017c00f607000082
:020000040000fa
:04018000f60700007e
:020000040000fa
:04018400f60700007a
:020000040000fa
:04018800f607000076
:020000040000fa
:04018c00f607000072
:020000040000fa
:04019000f60700006e
:020000040000fa
:04019400f60700006a
:020000040000fa
:04019800f607000066
:020000040000fa
:04019c00f607000062
:020000040000fa
:04020800f6070000f5
:020000040000fa
:04020c00f6070000f1
:020000040000fa
:04021000f6070000ed
:020000040000fa
:04021400f6070000e9
:020000040000fa
:04021800f6070000e5
:020000040000fa
:04021c00f6070000e1
:020000040000fa
:04022000f6070000dd
:020000040000fa
:04022400f6070000d9
:020000040000fa
:04022800f6070000d5
:020000040000fa
:04022c00f6070000d1
:020000040000fa
:04023000f6070000cd
:020000040000fa
:04023400fe050000c3
:020000040000fa
:04023800f6070000c5
:020000040000fa
:04023c00f6070000c1
:020000040000fa
:04024000f6070000bd
:020000040000fa
:04024400f6070000b9
:020000040000fa
:04024800f6070000b5
:020000040000fa
:04024c00f6070000b1
:020000040000fa
:04025000f6070000ad
:020000040000fa
:04025400bc030000e7
:020000040000fa
:04025800f6070000a5
:020000040000fa
:04025c000803000093
:020000040000fa
:04026000f60700009d
:020000040000fa
:04026400f607000099
:020000040000fa
:04026800f607000095
:020000040000fa
:04026c00f607000091
:020000040000fa
:04027000f60700008d
:020000040000fa
:04027400f607000089
:020000040000fa
:04027800f607000085
:020000040000fa
:04027c00f607000081
:020000040000fa
:04028000f60700007d
:020000040000fa
:04028400f607000079
:020000040000fa
:04028800f607000075
:020000040000fa
:04028c00f607000071
:020000040000fa
:04029000f60700006d
:020000040000fa
:04029400f607000069
:020000040000fa
:04029800f607000065
:020000040000fa
:04029c00f607000061
:020000040000fa
:0402a0002404000032
:020000040000fa
:0402a4002a03000029
:020000040000fa
:0402a800f607000055
:020000040000fa
:0402ac00f607000051
:020000040000fa
:0402b000f60700004d
:020000040000fa
:0402b400f607000049
:020000040000fa
:0402b800f607000045
:020000040000fa
:0402bc00f607000041
:020000040000fa
:0402c000f60700003d
:020000040000fa
:0402c400f607000039
:020000040000fa
:0402c800f607000035
:020000040000fa
:0402cc00f607000031
:020000040000fa
:0402d000f60700002d
:020000040000fa
:0402d400f607000029
:020000040000fa
:0402d800f607000025
:020000040000fa
:0402dc00f607000021
:020000040000fa
:0402e000f60700001d
:020000040000fa
:0402e400f607000019
:020000040000fa
:0402e800f607000015
:020000040000fa
:0402ec00f607000011
:020000040000fa
:0402f000f60700000d
:020000040000fa
:0402f400f607000009
:020000040000fa
:0402f800f607000005
:020000040000fa
:0402fc00f607000001
:020000040000fa
:04030000f6070000fc
:020000040000fa
:04030400f6070000f8
:020000040000fa
:04030800f6070000f4
:020000040000fa
:04030c00f6070000f0
:020000040000fa
:04031000f6070000ec
:020000040000fa
:04031400f6070000e8
:020000040000fa
:04031800f6070000e4
:020000040000fa
:04031c00f6070000e0
:020000040000fa
:04032000f6070000dc
:020000040000fa
:04032400f6070000d8
:020000040000fa
:04032800f6070000d4
:020000040000fa
:04032c007604000053
:020000040000fa
:040330009c04000029
:020000040000fa
:04033400f6070000c8
:020000040000fa
:04033800f6070000c4
:020000040000fa
:04033c00f6070000c0
:020000040000fa
:04034000f6070000bc
:020000040000fa
:04034400f6070000b8
:020000040000fa
:04034800f6070000b4
:020000040000fa
:04034c00f6070000b0
:020000040000fa
:04035000f6070000ac
:020000040000fa
:04035400f6070000a8
:020000040000fa
:04035800f6070000a4
:020000040000fa
:04035c00f6070000a0
:020000040000fa
:04036000f60700009c
:020000040000fa
:04036400f607000098
:020000040000fa
:04036800f607000094
:020000040000fa
:04036c00d8050000b0
:020000040000fa
:04037000c2040000c3
:020000040000fa
:040374000c05000074
:020000040000fa
:04037800f607000084
:020000040000fa
:04037c00f607000080
:020000040000fa
:04038000f60700007c
:020000040000fa
:04038400f607000078
:020000040000fa
:04038800f607000074
:020000040000fa
:04038c00f607000070
:020000040000fa
:04039000f60700006c
:020000040000fa
:04039400f607000068
:020000040000fa
:04039800f607000064
:020000040000fa
:04039c00f607000060
:020000040000fa
:10040000afac27000eff27000e018800000000009f
:10041000000020000000e000020032000001200087
:100420002002880014000700340307000000e000e9
:1004300003003a002052280011002000020037007b
:100440000000200001002000810f70000100320038
:1004500014000700000020000000e000020032004d
:100460000000020000000000b61e020001000000b3
:100470000040da000000fe004440a900c0772000e0
:100480000000e000030032000020200090018800fe
:100490004440a800000006008a1f78008b1f7800e7
:1004a00000000600a1028800800478000000eb0034
:1004b0001f003700e284440054a0b4009905ba003c
:1004c000e284440054a0b4009906ba00e2844400d7
:1004d00054a0b4000006eb00476fde00fd07b20039
:1004e000ae018800636ce10003003a00eaff0700f8
:1004f0000000eb000e003700606ce10008003a00dd
:10050000004deb000a05e800020039003420ec0041
:100510000af0a0008b05e900f9ff3e000400370057
:100520006168e100010032000086eb000b0007006b
:1005300019c7ba001905ba000e04e00003003a001a
:100540000a00e000dbff3a0000000600fe07b200f0
:10055000ae0288008a047800f5ff37000cd0a300b3
:10056000e20f4d001c00390089027800354dba00b9
:100570000a05e800020039003420ec000af0a0006f
:100580008b05e9000f003200254dba000a05e8008e
:10059000020039003420ec000af0a0008b05e900cd
:1005a000080032000c00e0000600320015cdba0051
:1005b0000a05e800020039003420ec000af0a0002f
:1005c0008b05e9008984e80054a0b4000b00e0002a
:1005d000e2ff3a00000006009902ba00055d7800cb
:1005e0008b05e900f7ff3200c82ade00055d7800c0
:1005f0008b05e900f3ff32000c00e000f1ff320050
:1006000019ddba00eeff3700f034040001000000ed
:100610003600f800809fbe00829fbe00849fbe000f
:10062000869fbe000000fa0085a0a90004580200c1
:100630000100000095a0a9000080fa004f03be0051
:100640004f02be004f01be004f00be003600f90051
:1006500000400600809fbe000000fa0087e0a9006d
:100660000000000001003700000000009111800030
:1006700000202000008060000000e000faff3a0047
:10068000a2c8bf000080fb000000e00003003200b1
:10069000e10f50001b0032003400370030ae200064
:1006a00090407800e0ad20001040780080cf5000ee
:1006b0000f00310030ae2000104078008040e8008c
:1006c00030ae20000148780030ae200010407800a5
:1006d0000080fb008000e90020ad20000080400089
:1006e000104078000080fb00a01188001f00370038
:1006f00020ae20008040eb0001487800ec62a900a9
:100700001a00370050cf20009040780000cf200022
:100710001040780080cf50000f003d0050cf2000e7
:10072000104078008040e80050cf20000148780059
:1007300050cf2000104078000000fb008000e9004e
:1007400000bf200000804000104078000000fb0047
:10075000a01188000500370040cf20008040eb004a
:1007600001487800ec62a900000000000080fa0057
:100770004f00be00004006003600f800809fbe001b
:10078000829fbe00849fbe00869fbe000200fa00ca
:100790008560a900c08d80000000e0000a003200e2
:1007a0008560a90030118000000f78001e007800dd
:1007b00000407800e6890200010000000000eb0024
:1007c000c0388b0019003700c4340200010000005b
:1007d000c1a9200040a820001872020001000000fa
:1007e000104680000000e00002003a00c06d0200e8
:1007f0000100000060aa200010407800e14f500086
:1008000002003a001000200010468800c0a9200015
:10081000e6bd020000000000104680000000e0007d
:1008200002003a00087b0200010000000080fa008c
:100830004f03be004f02be004f01be004f00be007e
:100840003600f900004006003600f800809fbe0028
:10085000829fbe00849fbe00869fbe000200fa00f9
:1008600087c0a900c08d80000000e00009003200b0
:1008700087c0a900b0118000004f78001e407800aa
:100880009c890200010000000000eb00c0388b00d2
:100890000f003700a2c8bf000080fb000000e0008e
:1008a00003003200e10f500006003200080037005c
:1008b0000568ef00e0aa2000a87302000100000014
:1008c0000300370044610200010000000000000046
:1008d0000080fa004f03be004f02be004f01be0071
:1008e0004f00be003600f90000400600801f78006f
:1008f0000200fa008c20a900101180006200600044
:100900000000e000020032002222a90007003700a8
:1009100010118000640060000000e000030032005d
:100920002242a90030118000004f78000080fa00b8
:100930004f00780000400600801f78000200fa0097
:100940008c40a90090118000620060000000e0006f
:10095000020032003222a900070037009011800007
:10096000640060000000e000030032003242a90091
:10097000b0118000004f78000080fa004f0078002e
:10098000004006003600f800809fbe00829fbe0037
:10099000849fbe00869fbe000000fa008e40a90022
:1009a00020172100104078000004e00004003a0005
:1009b000a0e8250022430200010000000f003700dc
:1009c000a2c8bf000080fb000000e000030032006e
:1009d000e10f500006003200080037000568ef0004
:1009e000e0aa2000a8730200010000000300370005
:1009f0004461020001000000000000000080fa00d5
:100a00004f03be004f02be004f01be004f00be00ac
:100a10003600f90000400600809fbe000200fa0088
:100a20008e60a900000000000100370000000000f7
:100a30009112800000202000008060000000e00093
:100a4000faff3a00f09080000000e000040032005d
:100a500020172100104078000004e00016003a0042
:100a600011d18200d0d08200808f50000d00310063
:100a700010d182000000e80010d18a0010d182005d
:100a80008000e900a061250000804000104078004f
:100a90000000fb00000f78009e007800a112880083
:100aa0004000370000a225008040eb00014878009c
:100ab000f4e2a9003b003700a2c8bf000080fb00a1
:100ac0000000e00003003200e10f50001b00320084
:100ad0003400370030ae200090407800e0ad2000b8
:100ae0001040780080cf50000f00310030ae200061
:100af000104078008040e80030ae200001487800c7
:100b000030ae2000104078000080fb008000e9003b
:100b100020ad200000804000104078000080fb00e5
:100b2000a01288001f00370020ae20008040eb009c
:100b300001487800f4e2a9001a00370050cf2000e5
:100b40009040780000cf20001040780080cf500007
:100b50000f003d0050cf2000104078008040e8009a
:100b600050cf20000148780050cf2000104078007e
:100b70000000fb008000e90000bf20000080400072
:100b8000104078000000fb00a0128800050037002c
:100b900040cf20008040eb0001487800f4e2a9003b
:100ba000000000000080fa004f00be000040060078
:100bb000801f78000200fa008e20a90090128000a9
:100bc000620060000000e000020032005222a90032
:100bd0000700370090128000640060000000e00011
:100be000030032005242a900b0128000004f78008a
:100bf0000080fa004f007800004006003600f80040
:100c0000809fbe00829fbe00849fbe00869fbe0064
:100c10000000fa008460a900ea71020001000000ef
:100c200042750200010000007a6d02000100000020
:100c3000346302000100000061ac2000e0aa200043
:100c400076750200010000009263020001000000be
:100c5000dc52020001000000c0df2000c28d020053
:100c60000100000020e02000c28d02000100000011
:100c700040ed2000c28d02000100000020ec2000a9
:100c8000c28d02000100000060702600c28d0200cb
:100c90000100000080922100c28d020001000000ce
:100ca000c0702600c28d02000100000000f120008b
:100cb000c28d020001000000c07a8000e10f5000e8
:100cc00006003a00a07980000000e00003003a002e
:100cd000707a80000000e00009003200417d800051
:100ce00000042000008060000000e00004003a00e2
:100cf00020172100104078000004e00004003a00b2
:100d000010002000108f8800022aef000400370036
:100d10000000eb00108f88001000200010508800a9
:100d2000215080001250800010c0b300828f50000c
:100d300001003d000040eb008100e80021508800e8
:100d40000004e00003003200b66a02000100000067
:100d5000042aef00a04f80000000e800a04f8800a8
:100d6000a14f8000703e2000808f5000630034004f
:100d7000f429ef00708a8000e30f50000500320074
:100d8000708a8000e40f500002003200c24d020061
:100d90000100000000ee2000c28d020001000000f2
:100da000a06f2600c28d0200010000000070260026
:100db000c28d02000100000080ec2000c28d020004
:100dc00001000000a0f02000c28d02000100000020
:100dd000c09e2100c28d02000100000060f12000d1
:100de000c28d020001000000a0ed2000c28d0200b3
:100df00001000000e0922100c28d0200010000000d
:100e0000809f2100c28d020001000000e0ec200064
:100e1000c28d020001000000209f2100c28d02004f
:100e20000100000020712600c28d020001000000b8
:100e300080712600c28d0200010000004093210055
:100e4000c28d020001000000e09f2100f88d020029
:100e50000100000080a02100c28d020001000000fe
:100e6000e0a02100c28d02000100000040a121008d
:100e7000c28d02000100000000a22100c28d02000c
:100e800001000000a0a12100c28d020001000000ad
:100e9000c0a22100c28d02000100000020a3210099
:100ea000c28d02000100000080a32100c28d02005b
:100eb0000100000040722600c28d02000100000007
:100ec000a0a52100c28d020001000000e0a32100c6
:100ed000c28d02000100000040a42100f88d020034
:100ee00001000000e0a42100c28d0200010000000a
:100ef00040a52100c28d020001000000f0378300f0
:100f00000000d100614060000080fb0000458800c7
:100f1000d04480000000e800d044880000458000f4
:100f20000000e00016003200d144800020032000c1
:100f3000808f50000e003400a01780006100600018
:100f400000f0a7000000ea000000e9004f00de000a
:100f5000004078000080fb0061006000a117800065
:100f60000100a10001007000a01788009a28ef007e
:100f70004004200040118800c228ef001200370012
:100f8000d1448000800c2000808f50000e0034007f
:100f9000a01780006100600000f0a7000000ea00d8
:100fa0000000e9004f00de00004078000080fb00f8
:100fb00061006000a11780000100a1000100700025
:100fc000a01788009a28ef000c8b02000100000097
:100fd0000080fa004f03be004f02be004f01be006a
:100fe0004f00be003600f900004006000040da0065
:100ff0000000fe000a00fa00e20f500034003e003c
:1010000040d68300e10f500003003200e20f500091
:1010100011003a000c003700032220000300e0001a
:1010200001003a000040da002002e2000200350030
:101030002822ef0021e2a8002342ab000d003a0075
:101040002342a8000b003700032320000300e00028
:1010500001003a000040da003002e20002003500f0
:101060003822ef0031e2a8003342ab0001003a0021
:101070003342a800820178000b0037003102fb00e8
:10108000e10f500004003a002322ab00feff3a00bb
:1010900024118800030037003322ab00feff3a0022
:1010a000a41188008301e9000300e000f3ff3a0087
:1010b000e10f500003003a002302ab00feff3200b4
:1010c0000b0037003302ab00feff32000800370090
:1010d00033002000b3bf9f00c0bf9f00d1bf9f005f
:1010e000e2bf9f006a805700cd0807006fb99700e4
:1010f000020078000080fa000000060000000500f1
:1011000003f0a200889fbe008a9fbe008c1f78005b
:1011100090010700970133006450e1004f00320056
:101120006420e1005200320003826c0007003b00a3
:101130000905d0000306d000820f54000c065d00a4
:1011400002003900020032008901780003067800ad
:101150008582550004003d000003fd008103fd0071
:101160008502ea008b854200840f720002003b007a
:1011700060001000e08018006011b8000005eb006e
:101180007a28e1000a00390006007800c75ddd001a
:10119000f707b200878075002d003700828171004b
:1011a0000a017800610560008180d1000080d300d1
:1011b0008502e900f9ff3b000604400087844800ef
:1011c00002003b0060041400e0841c000988a300b6
:1011d000070032008a817100828171006101640020
:1011e0008904d1000884d3008b05e800170037007c
:1011f0000978a30013003a000b00e000130034004c
:101200008b05e9000804440089844c000a447400fa
:101210000978a3000d003a000b00e000070034003d
:101220008b05e9000804440089844c0001003a0061
:101230000b0020000978a300f7ff32000001eb004b
:1012400002003700828171000a0178000601070060
:101250000cf0a70001f0a0004f0137006420e1006e
:1012600002003a00838f6c004f0133000801be007a
:101270000200be00480137000001eb0057000700e4
:10128000040032000200200003f8230001f0a60051
:101290009cff070000000600889fbe008a9fbe00da
:1012a0008c1f78002b0107003201330003866c008d
:1012b0006450e1002e0032006420e100330032006f
:1012c0006150e1002f0032006120e1003100320066
:1012d00085855500eb07b0000900200008042000b8
:1012e000050037000804440089844c000a003100de
:1012f0000603430087834b000001530081815b009c
:10130000f8ff33000203be000800a00008044400f8
:1013100089844c00f6ff3900c639dd008301730073
:1013200001003200130020008904d1000884d3009a
:101330000998a300050032000800a7000300a000e0
:101340008904d1000884d3008b05e8008904d1000a
:101350000884d3000001eb000281d200c200070024
:1013600001f0a1000cf0a70001f0a0000a01370075
:101370006420e1000c0132000801be000200be0042
:10138000f7ff37006120e100070132006000b8007c
:10139000f3ff37000000200001f82700f0ff3700be
:1013a000839f68000100e00002003d006000100023
:1013b000e08018000300e00002003d006001110021
:1013c000e0811900860107004f00e00002003b00a9
:1013d00060001000e080180000000600889fbe003a
:1013e0008a9fbe000003be00c50007008505780087
:1013f00082815200020020006220e10004003a00d5
:10140000f307b100040035007718e100040035004f
:101410000600be00140037006000b8000f0037005f
:10142000f50f2000faff2f008502d1000a85d300b6
:101430008301e900fcff3b00818462000004650039
:10144000890f7400f2ff32008582ea000a85ea0003
:1014500081846200000465008300070007f0a70094
:1014600001f0a0000081eb000200e0004f05be008b
:101470004f04be0000000600140020007501370074
:10148000f4ff2f00730137000001be009c0007002d
:101490000470a70003f0a1006509b1001600320036
:1014a0000d0035006828e10006003500f0ff2f0030
:1014b000f1ff27000300e00013003b0001002800bb
:1014c0000000050000004000818048008502e9001e
:1014d000fcff3a0008003700f88f420002003c0091
:1014e0008000eb00000005008100d1000080d300e7
:1014f0008502e800fcff3a000300e00002003b0028
:1015000060001000e0801800000006000001be002e
:101510007b0007000470a70003f0a10003f8a300fc
:1015200013003a006509b1001000320009003500cf
:101530006928e100020035000100280000000500d4
:1015400000004000818048008502e900fcff3a006d
:1015500000000600f88f4200050035008100d10030
:101560000080d3008502e800fcff3a00000006007e
:101570008000eb00000005004f89de00820178004a
:101580004f013700889fbe008a9fbe000082700016
:101590000402710004827100260032000004be00c3
:1015a0000200be006011b8006b0920009502200007
:1015b0000182cf000a0039000541b1000082cf004e
:1015c000070039000541b1000982cf00040039004d
:1015d0000541b1000882cf00010039000541b1008a
:1015e00005425200120032000a003b008281710065
:1015f000610164008100d1000080d3008984d300a0
:101600000884d3008b05e8000442e800f7ff3a00a5
:10161000070037000804440089844c00000048009b
:10162000818048008b05e9000442e900f9ff3a0097
:101630000d0007004f05be004f04be00000006006d
:101640006011b800cfff37000001eb0063ff070017
:10165000040032000200200003f8230001f0a7007c
:10166000a7fe0700000006008100200061805500f1
:101670000b003d000b00200061fe2f000100e10087
:101680001d00340082817100610164008904d10071
:101690000884d3000000e800faff3a00710020003f
:1016a0006100640003007000020060000900320065
:1016b00061044400e0844c000988a5000500320064
:1016c0008b05e8006808e10002003a008904d100b7
:1016d0000884d300f20f20000258e10005003d000d
:1016e000c75ddd00f907b200898075000800780049
:1016f000000006000bf827008b00780000000500b2
:10170000c70ade00f107b200f50fb2000800320090
:10171000e1cf4200020032000170a0002400050069
:10172000810f70000100320004080500440005002c
:10173000810f700002003a00140005008502e900e4
:101740000000400081c04800fcff3b000170a00089
:10175000240005000004be00e9ff07000003be00ee
:101760000405be000200be00e5ff0700844f7500bf
:10177000000006000200be006450e10005003600d3
:101780006420e100020036000968a30001003a006d
:101790000800be000160a0004f0678004f05be00a3
:1017a0004f04be0000000600f0ff2f00f1ff2700ed
:1017b000f9ff3700889fbe008a9fbe008c9fbe0045
:1017c00097000700850478000005be006420e10052
:1017d00049003e006220e1000300320009003500ac
:1017e0000bf8a300440032000bf8a30008003200fd
:1017f0001002200070518800f0ff2f00f1ff270039
:101800003d00370001f82f00000020003a003700ab
:101810003d0007003afe07000006be000a00be00b9
:10182000324f200053f3230015ff07000600340059
:101830000c00be003400070031fe07000006be00a9
:101840000a00be00020037008904e9000c00be0057
:101850002d0007002e0007002b00070029fe0700bf
:101860000001be000c00be008bfe07000005be009c
:101870000001be00260007000006be00a2f3230000
:10188000430d2c001ffe0700809fbe000c00be0011
:10189000d2e32700d3f02b001d0007004f01be004c
:1018a0007dfe07000006be000a01be00180007000a
:1018b0000a01be0013fe07000006be006148b90021
:1018c0002dff07000005be0032082800e3952b001d
:1018d0000f0007000c01be000afe07000006be0054
:1018e0000a00be000200280013f3230008000700ce
:1018f0000c01be0003fe07004f06be004f05be00f0
:101900004f04be000000060003f0230002000500a3
:10191000889fbe008a9fbe008c1f78008dff070045
:1019200094ff330003866c006450e1002400320011
:101930006420e100270032006150e1002200320003
:101940006120e100210032008b854200eb07b100ed
:101950000134b800003ab8000804420089844a0003
:10196000013ab8000030b8008880400009014a0000
:10197000040033000000400081804800020149005b
:101980008b05e900c909dd00830170000100320008
:1019900013002000c814de004814dd004709de00f3
:1019a0001200b200c808de00088470002eff070095
:1019b00001f0a1000cf0a70001f0a00076ff3700b5
:1019c0006120e10078ff32000801be000200be0085
:1019d000f7ff37006150e100fcff3a0072ff37006b
:1019e0006022b800060220000000d0008180d200f2
:1019f0000482d2008582d2000000a00002025200c0
:101a000083825a00030031000202420083824a00ae
:101a10000000a1000603e900f3ff3a000000060001
:101a20000003be0036ff07006220e1000200320022
:101a30000600be0005000500e507b100f107b20091
:101a400004f023008480700007f0a70001f0a000dc
:101a500024000500889fbe008a9fbe00841f780076
:101a60003cff07004f00780011003300f0ff2f000b
:101a7000838f6c0006003b00040565000a00a70088
:101a80000800370009f0a600100020000800370009
:101a9000820f5400838f5c00030039001000200087
:101aa00001003e000000200009f0a7000000ea004d
:101ab0004f05be004f04be000000e000000006001d
:101ac000881f7800030478000300e00007003d0051
:101ad00060001000e080180060011900e08119002a
:101ae00002003b0001f02d0003003700a5fe0700b7
:101af00008f0a70001f0a0004f04780000000600e5
:101b00000c00fa00889fbe0000047800f0ff270058
:101b1000d0bf9f008004eb0099bf9f0088bf9f004b
:101b2000a8bf9f00200c2000b0bf9f007881570005
:101b3000cfb0970070805700cf0007000fb8970014
:101b4000094878008fb89700088050004f04be0005
:101b50000080fa00000006000800fa00889fbe001e
:101b60008a9fbe000084fb00d1c6b300814f5000a5
:101b7000340036004b062000110009000b84d80009
:101b800081057800720040004300dd00a97d270038
:101b9000008044006022b8000600200007fe2300f9
:101ba0005001be004000be00bb0707000002be009f
:101bb0000203be0084bf9f0095bf9f00a6bf9f0089
:101bc000b7bf9f00aa002000110009008a85d80035
:101bd00080057800e9854500c35ddd008b85440004
:101be0003b02be002b03be000fb897009fb89700c2
:101bf0002fb99700bfb99700a70707000002be00e2
:101c00000203be0084bf9f0095bf9f00a6bf9f0038
:101c1000b7bf9f00110009000a84d80001047800b2
:101c20004344dd00888444003902be002903be001d
:101c30000fb897009fb897002fb99700bfb99700ca
:101c40001d003700ea4f500013003600aa002000a4
:101c5000110009000a84d8000105780069044000d9
:101c60004344dd00a97d2700088444006022b800b9
:101c70000600200007fe23003800be002801be0039
:101c8000850707004355dd008a8444003902be0001
:101c90002903be00080037004344dd00a07d270073
:101ca000080440006022b8000600200007fe230060
:101cb0003800be002801be00770707004f05be00b0
:101cc0004f04be000080fa00000006000800fa0081
:101cd000889fbe008a9fbe00d1c6b3000004e0000a
:101ce00023003d000040ea000004fb00814f50004b
:101cf0000a00340042062000110009000204d80046
:101d0000a9002000110009008900d800e900400066
:101d1000c308dd00aa7d270021003700ea4f5000ec
:101d200010003400a2002000110009000204d800b5
:101d300001017800690040004300dd00a17d27001b
:101d4000008040004311dd00828040003102be006f
:101d50002103be005001be004000be004e07070038
:101d6000380037004344dd00a07d270032003700f3
:101d70000004fb00814f5000230034004206200085
:101d8000110009000204d800a90020001100090078
:101d90008900d800e9004000c308dd00aa722700ce
:101da000810045003102be002103be008b092000e6
:101db0008a8545003b00be002b01be0036070700a8
:101dc0000002be000203be0084bf9f0095bf9f00bb
:101dd000a6bf9f00b7bf9f00110009000904d800eb
:101de000010478004344dd00080545003a02be00c6
:101df0002a03be000fb897009fb897002fb997002d
:101e0000bfb99700d5ff3700ea4f500008003400f3
:101e1000a2002000110009000204d800010178008e
:101e2000690040004300dd00a1722700c4ff3700b5
:101e30004344dd00a0722700080440003800be00c3
:101e40002801be004f05be004f04be000080fa000e
:101e500000000600d0019000028151004240a9001c
:101e60000300340010017800014978000208e800fe
:101e700001007800000006006f02b000889fbe00dd
:101e80008a9fbe008c9fbe008e1f780000067800df
:101e9000b1af9f0092b79f006000b8006011b8001a
:101ea000d0af9f00e1af9f00f2af9f0083b79f00cc
:101eb0008006eb00c5043700bfa897008100e8004a
:101ec000b1af9f0051c2b300814f500003003a00f0
:101ed000bfa897000007eb0011003700bc0090007e
:101ee0000000fb000168a300070032000d0178002c
:101ef000800078000c007800d6ff07000000e000aa
:101f000005003a00b10437008c007800bb040700dc
:101f1000e10f4000ad0432008d06e800ab0437004d
:101f20000101780031407800d3c2b300834f5000e4
:101f30000c00320007003c00edc15100834f5000ff
:101f40000a003200ebc14100834f50000d003a00ff
:101f50000800370003c3b300834f500009003a0064
:101f6000060037000e30a000edff37000e00a00085
:101f7000ebff37000e10a000e9ff37000e20a00095
:101f8000e7ff37000e18a300010032000e00a10089
:101f90000e38a300010032000e20a1008000fb00db
:101fa0000103b100e98f50000c003e0002007800f0
:101fb0008005eb006a59b900b005fb000b03b100c6
:101fc00082854500000178009000fb000103b1000c
:101fd000e98f5000f7ff3600080037008005eb005e
:101fe000a1c2b300814f500004003a009fb1970096
:101ff000c305780093b79f000201e800e0c2b30078
:10200000924f100016003a000ee0a000644050000d
:10201000d24f100003003200020078008001eb0074
:10202000080037009fb297004503780095b79f00de
:10203000e6b79f000201e8000c0037006a19b900fa
:102040008281400000017800b000fb000103b10074
:10205000e98f5000f9ff3600e3b79f000300370017
:102060000ec0a0008003eb00e7b79f00820178005c
:102070003340780003017800c1c6b300814f50009f
:102080002b003200b3af9f0014003c00e8c05000aa
:10209000814f50002400320009003c00ecc0500089
:1020a000814f50002a003200ebc04000814f5000a9
:1020b0008c0032000004e00049043200a200370026
:1020c00061c6b300814f50001b003200e3c04000e6
:1020d000814f50009c003a001300370031c7b30015
:1020e000814f50001e00320007003c00e4c0500049
:1020f000814f5000130032008140e800814f5000b2
:1021000091003a001200370051c7b300814f5000d0
:1021100092003200e3c04000814f50008a003a0034
:10212000e0cf9f000c003700e0cf9f008d0037000c
:102130000e40a000cdff3700e0cf9f000ea0a00012
:1021400088003700e0cf9f000e60a00085003700b8
:10215000e0cf9f000e50a0000e70a000810037005d
:10216000e0cf9f009fb097004100780091b79f009b
:10217000000478000000e00001003a0008a42700f5
:10218000880078000000eb00010037000000e80044
:10219000614178000204e000fcff3a00800478000e
:1021a0006fb197000200e00003003200890f510078
:1021b00001003100820478000005eb00898f550092
:1021c0000100360009855500680767002a003a00bb
:1021d000110037003c0090000068a30007003200a7
:1021e0000d017800010220000c00780019ff0700a3
:1021f0000000e00006003a00060037008c0078007e
:1022000000022000fd030700e10f40000100320042
:102210008d06e8000a05e9000a00e000edff3a003b
:102220000085eb00140037003c0090000068a3001c
:102230000900320008007800b000fb0000047800bc
:102240000d0178000c00780002ff07000000e0009c
:1022500008003a0008003700880078003100fb00d1
:10226000010478008c007800e4030700e10f4000cf
:10227000010032008d06e800090078008004e900c2
:102280000000e000e8ff3a000e00e000cf0332005b
:10229000110037003c0090000068a30007003200e6
:1022a0000d017800010220000c007800e9fe070013
:1022b0000000e00006003a00060037008c007800bd
:1022c00000022000cd030700e10f400001003200b2
:1022d0008d06e8000a05e9000a00e000edff3a007b
:1022e000ba0337009fb197004302780093b79f006d
:1022f000cfa2de00482bdd004820de000000730086
:10230000c828de00e0cf9f000e48a300080032007e
:102310000004e00006003200e14f400004003200fb
:10232000f0cf9f0084d79f002900200002003700d3
:10233000f4cf9f0019002000e7fc2f008f8343009b
:102340000704e80096ff3700e0cf9f00e8fc2f006d
:102350000f0444001900200091ff3700e0cf9f00d8
:102360000e0cb30001702000810067007000670050
:102370000100e000190232000ec8a3000200320082
:1023800061002000e1b79f000000e000060032007d
:102390001fb09700680050003002be002003be004e
:1023a00090b79f00060037001fb197004200be00a3
:1023b00092b79f00480507000002be000203be005e
:1023c000a4b79f00b5b79f00c6b79f00d7b79f00bf
:1023d0006022b8006033b8002fb09700bfb09700fc
:1023e0004fb19700dfb197008d0407000000e000b7
:1023f0000a003d002fb09700bfb097004fb1970083
:10240000dfb1970003f0a200a0b79f00b1b79f0013
:10241000c2b79f00d3b79f003e00b3000000eb009f
:1024200090af9f006022b8006033b8002fb09700d3
:10243000bfb097004fb19700dfb19700dc040700f1
:102440000000e0003400320024fd2f000f024200a3
:102450002fb09700bfb097004fb19700dfb1970042
:102460006f0507001fa897000000e9006302b9008c
:10247000a2002000110009000202d80090af9f00c6
:102480000000e00002003d000000e90090af9f0066
:102490001fac97000840ea000cfe07002fb297001f
:1024a000bfb297004fb39700dfb397007a050700dc
:1024b0000002be000203be00d4af9f00e5af9f0044
:1024c000f6af9f0087b79f006022b800060020008b
:1024d00007ff2300520407000000e00002003d0057
:1024e0000804e9000b0037006022b8000600200055
:1024f000470224005fa89700efa897007fa99700e4
:102500008fb197004b0407000000e0000200350087
:102510000804e80098af9f00efb29700ec8f5200dc
:102520000f003c00054078008bfd07000002be0054
:102530000203be002fb09700bfb097004fb19700c5
:10254000dfb19700b80307000002be000203be001f
:10255000a4b79f00b5b79f00c6b79f00d7b79f002d
:102560001fac9700e90f540015003c006022b80032
:102570006033b8002fb09700bfb097004fb19700fd
:10258000dfb197008a0407000000e000310032004c
:102590002fb09700bfb097004fb19700dfb1970001
:1025a000ec040700e00f5000e08f5800e00f5900e6
:1025b000e08f590027003a00e10f54002500340055
:1025c0000400200005002e00b6e0220017012400c0
:1025d0005fa89700efa897007fa997008fb1970099
:1025e0000f0407000000e00002003d0069045400f1
:1025f000010037006804540098af9f002fd0970067
:10260000b2fd07000002be000203be00d4af9f006f
:10261000e5af9f00f6af9f0087b79f002fb09700f0
:10262000bfb097004fb19700dfb1970006040700d5
:10263000c80407000004be006000b8006011b800c4
:10264000a0b79f00b1b79f00c2b79f00d3b79f004c
:10265000160037002fb09700bfb097004fb197001a
:10266000dfb19700bb0407000004be00ea040700c6
:102670000002be000203be002fb09700bfb097005b
:102680004fb19700dfb19700790507000002be0047
:102690000203be00a4b79f00b5b79f00c6b79f0056
:1026a000d7b79f000000eb0090af9f0081a42700e8
:1026b00010c0b30005003700e4804000b10f5400a3
:1026c000a18f5c00030039000040e800ea4f500091
:1026d000f9ff3a00e0cf9f009fa897008180550046
:1026e000efb29700858050000005fb000a8550007e
:1026f0000500e000010032000a05e9006300670000
:10270000010032000a05e9000e28a300390032005a
:10271000610167000e18a3000f0032003c0090001a
:102720000068a30006003200b10220000200e000b1
:10273000010032008180e8000d0178000d003700b3
:10274000b00220000200e000010032000080e8003a
:102750008c0078000e0037000200e00022003200fa
:102760003c0090000068a300070032000d017800d3
:10277000010220000c007800b6fd07000000e00018
:1027800006003a00180037008c0078000002200094
:102790009a020700e10f4000130032008d06e800a6
:1027a000110037003c0090000068a30007003200d1
:1027b0000d017800010320000c007800a5fd070042
:1027c0000000e00006003a00060037008c007800a8
:1027d0000003200089020700e10f400001003200e1
:1027e0008d06e8000a05e9000a00e000edff3c0064
:1027f000570037000e38a30014003a0011003700cc
:102800003c0090000068a300070032000d01780032
:10281000010220000c0078008efd07000000e0009f
:1028200006003a00060037008c0078000002200005
:1028300072020700e10f4000010032008d06e8003f
:102840000a05e9000a00e000edff3c0061016700b5
:102850000e18a3000e0032003c0090000068a30098
:1028600005003200b10220000200e0002200320028
:102870008180e80020003700b00220000200e00064
:10288000010032000080e8008c0078002c00370046
:102890000200e0002e0032003c0090000068a3001f
:1028a000030032000d017800010220001300370000
:1028b0008c00780000022000210037003c019000cd
:1028c00080a427008100fb000268a30010003200f2
:1028d000c208dd00810040001101be000800be00fa
:1028e0003ffc0700a200200003002000e2040700d4
:1028f00001032000808040000d0178000c0078006a
:1029000054fd07000000e00010003a0010003700fe
:10291000c208dd00810040001101be000800be00b9
:102920002ffc0700a200200003002000d2040700b3
:1029300002032000000141008c00780002007800b2
:102940002e020700e10f4000010032008d06e80072
:102950006fc897008040e900e1cf9f000004e000cd
:10296000d6ff3a00130037003c0090000068a30037
:10297000070032000d017800010320000c007800f0
:1029800034fd07000000e00006003a0006003700b2
:102990008c0078000003200018020700e10f4000bf
:1029a000010032008d06e8001fa897000000e90032
:1029b00090af9f001fa897000000e000eaff3c00d6
:1029c0006fb39700e80f53000300340080c0b300da
:1029d000e0cf9f0002003700cfeb9700e7cf9f00ca
:1029e0006fc897008005fb00efb097008b85500003
:1029f0000004e000100032003c0090000068a300da
:102a0000070032000d017800e10220000c00780080
:102a100010fd07000000e00006003a000600370045
:102a20008c007800e0022000f4010700e10f400074
:102a3000010032008d06e8006fc89700a3fc070074
:102a40000002be000203be002fb09700bfb0970087
:102a50004fb19700dfb197000f040700bd030700d7
:102a60002d0037003c01900081a427000000fb00ee
:102a70000268a300100032004200dd0080804000a8
:102a80001101be000800be00d5fb0700a200200017
:102a9000030020007804070001032000808040002c
:102aa0000d0178000c007800eafc07000000e0004f
:102ab00010003a00100037004200dd008080400026
:102ac0001101be000800be00c5fb0700a2002000e7
:102ad00003002000680407000203200000014100f9
:102ae0008c00780002007800c4010700e10f40006c
:102af000010032008d06e8006fc997000200fb005c
:102b00004200dd0081a42700008040001001be00cb
:102b10000800be00580407000004be00efc897007c
:102b20000140e900e0cf9f000104e000cdff3a0042
:102b3000110037003c0090000068a300070032003d
:102b40000d017800010320000c007800c1fc070093
:102b50000000e00006003a00060037008c00780014
:102b600000032000a5010700e10f40000100320032
:102b70008d06e8008b05e9000b00e000edff3a0050
:102b80000e38a300910132000a00e0008f013400ea
:102b90003c0090000068a300070032000d0178009f
:102ba000010220000c007800aafc07000000e000f1
:102bb00006003a00060037008c0078000002200072
:102bc0008e010700e10f4000010032008d06e80091
:102bd0000a05e900eeff3a007c0137008e0078001c
:102be000010cb20011003a000000e00004003200c5
:102bf0009fb197004304be0093b79f0004003700c5
:102c00001fb297004404780094b79f00cfc4de0041
:102c1000e00f5400e08f5c000e003d003e00b3006a
:102c200060041400e0841c000a0037000000e0008b
:102c3000040032009fb297004504be0095b79f0084
:102c4000040037001fb397004604780096b79f0032
:102c50008004eb00efb397000700e00006003a00a5
:102c60000880740000f0a7000000ea000000e900fe
:102c70004f00de00e0b79f000e007800000cb200ad
:102c8000c0af9f0000042000cfa89700808f5000a5
:102c90002300320003003c000100e0000800320085
:102ca0002d003700000820004fa99700800f510029
:102cb0000d003200000c2000800f510026003a0069
:102cc00081a4270010c0b300e4804000b10f54007d
:102cd000a18f5c001f0039000040e800ea4f50005f
:102ce000f9ff3a001b00370010c0b30002012000ba
:102cf00003002000820f5400838f5c001500390010
:102d0000441add00cc11de00830172004411dd00a5
:102d10000040e800e84f5000f6ff3a000d00370091
:102d200010c0b3008200200003002000820f540076
:102d3000838f5c0007003900c31add00cd11de006f
:102d4000838172004311dd000040e800eb4f50002a
:102d5000f6ff3a00e0cf9f006fcb97000600fb0024
:102d6000efb39700870f500002003d00e7cf9f00b0
:102d700004003700efb09700808f500001003d0045
:102d8000e0b79f000b00e000030032006300670023
:102d9000010032008b05e9000ee8a30006003200b6
:102da0006fb19700828f5500020034008285550074
:102db000010037008005eb00efc997000300fb001e
:102dc0000002eb00a4b79f00808f55000200340082
:102dd00000805500a0b79f000e28a3003c003200e1
:102de000610167000e18a3000f0032003c00900044
:102df0000068a30006003200b10220000200e000db
:102e0000010032008180e8000d0178000d003700dc
:102e1000b00220000200e000010032000080e80063
:102e20008c0078000e0037000200e0001000320035
:102e30003c0090000068a300070032000d017800fc
:102e4000010220000c00780002fc07000000e000f6
:102e500006003a00060037008c00780000022000cf
:102e6000e6000700e10f4000010032008d06e80097
:102e7000afb297000500e00052003200050578006f
:102e80003c0090000068a300070032000d017800ac
:102e9000010320000c007800eefb07000000e000ba
:102ea00006003a00060037008c007800000320007e
:102eb000d2000700e10f4000010032008d06e8005b
:102ec0000a05e900eeff3a00aab79f003d0037006f
:102ed0002fb397000600e000160032000e38a30062
:102ee00014003a00060578003c0090000068a3003a
:102ef000070032000d017800010220000c0078006c
:102f0000d4fb07000000e00006003a00060037008e
:102f10008c00780000022000b8000700e10f40009c
:102f2000010032008d06e8000a05e900eeff3a00d4
:102f3000aab79f00610167000e18a3000f003200be
:102f40003c0090000068a30006003200b10220009f
:102f50000200e000010032008180e8000d017800ed
:102f60000d003700b00220000200e0000100320036
:102f70000080e8008c0078000e0037000200e000be
:102f8000100032003c0090000068a30007003200ef
:102f90000d017800010220000c007800adfb070055
:102fa0000000e00006003a00060037008c007800c0
:102fb0000002200091000700e10f400001003200f4
:102fc0008d06e800efb397000702e9006320b9001f
:102fd00000017800a2af9f004222dd0080a42700fc
:102fe0000002420004057800cfad97005c00370076
:102ff000efb197008301e900e3b79f0000042000d0
:10300000808f55003700320003003c000b00e000c9
:10301000070032003d00370000082000808f550077
:1030200020003200000c2000808f550037003a004d
:103030000e48a300100032001a02be000401be00b8
:103040000800be00f4b79f0085bf9f0064fa070028
:10305000e0cf9f000000fb00cf80de007fb2970032
:103060008fba97000401be00060307000004540055
:1030700081845c00070037001a0178001100090004
:103080000284d800a2002000110009000280d800ac
:10309000e1cf9f006fca97000443b000e4cf9f00c8
:1030a0001a003700f0a227000e58a30001003200da
:1030b000e0a1270081a42700810055000801be007f
:1030c0008100e900030033008301d1000281d300b5
:1030d000fbff37006f01610060417900e2cf9f0084
:1030e0000a0037000800be00afaa97008502e90079
:1030f000030033008100d1000080d300fbff3700c4
:10310000674060000043b000e0cf9f00bc0090002b
:103110006fcb97000600fb000168a3000700320098
:103120000d017800800078000c00780049fb070052
:103130000000e00005003a00050037008c00780030
:103140002e000700e10f4000010032008d06e8006c
:10315000afab9700e3835300a7af9f006405550012
:103160006fb097000000e000a1ff3a000e38a30006
:1031700016003200afb097000100e00013003400e9
:10318000010578003c0090000068a30007003200b1
:103190000d017800010220000c0078002dfb0700d3
:1031a0000000e00006003a00060037008c007800be
:1031b0000002200011000700e10f40000100320072
:1031c0008d06e8000a05e900eeff3a003fa99700e6
:1031d00012407800e0cf9f000004e00036fb3a0088
:1031e0000d0078004f0778004f06be004f05be0067
:1031f0004f04be006f02b10000000600889fbe00b1
:1032000001047800b80090008084eb000118a3004e
:103210003a003200180190000198a30002003a0021
:103220000200e00035003a000190a000310498004f
:1032300080047800f90fb2000200e00002003a00ba
:1032400028009000000c7800ea8f540005003a0036
:103250000178a30003003a0088007800d000200025
:10326000e6ff070018009000d8009000810f500082
:103270000b0032000000e8001004980018007800ed
:1032800009487800000ce80011c0b30020ac27000a
:1032900001487800ea8f540018003a000500370012
:1032a00088007800094078001e000700800478003c
:1032b00012003700380090000088a3000f00320091
:1032c00018019000a80090004800900049f70700fe
:1032d00098009000810f50000400320038009000e8
:1032e0000003b300300498008084eb000000eb0082
:1032f0001004980028009000000c78000900780065
:103300004f04be0000000600800178000200370074
:10331000b15978000201e9000200e000fcff3a0028
:10332000000006000200fa00889fbe00a0ff9f0078
:1033300001047800380090000068a30033003a00d0
:10334000e200600005003a000003b300300498007a
:10335000110498000080eb002e003700d804900084
:103360000900e00006003a0012002000e680570045
:10337000480090001ff70700190498002300370049
:10338000a80090000100e00008003a0051ac2700be
:1033900021049800010c78002100200051049800bd
:1033a000110498000030a00030049800180190002b
:1033b000a8009000480090000ef707002800900039
:1033c0008080eb0011049800aff897000148780066
:1033d000000ce8002ff89700ea4f50000b003a006d
:1033e000380090000088a300080032001801900007
:1033f000a800900048009000fef607000000eb00d7
:1034000010049800a8009000010c7800aff8970015
:103410000100fb004f04be000080fa00000006001f
:1034200000c0da00000006002800fa00889fbe00f5
:103430008a9fbe008c9fbe000706780087866900c1
:103440000c003b00030478008704780008f0a1001a
:1034500009f0a100840f5000858f5800860f590095
:10346000890f5c00030033000cf0a20001003a0059
:103470000cf0a100ff0007006400e1005f003200d3
:10348000780147006408e100610032006c014700e8
:10349000748557003200be001201be003a04be001f
:1034a0001a05be001e039000be0a9000850353005b
:1034b00006003d000004fd008104fd000205fd0042
:1034c0008305fd008703ea00050378000df8a300db
:1034d0000400320060041400e0841c0060051d003c
:1034e000e0851d006022b8007d0320000d38e1005a
:1034f0008006eb000b0039004433dd00f300b2001e
:103500008301730039003700848272000d02780055
:10351000e10664008b85d1000a85d3008984d3003d
:103520000884d3008703e900f7ff3b000800400050
:10353000898048000a0149008b81490004003b0052
:1035400060001000e080180060011900e08119009f
:103550000358a300090032008d8272008482720039
:10356000610260008301d1000281d3008180d30019
:103570000080d3000603e8001b0037000348a300c7
:1035800017003a000600e000170034000603e900c7
:103590000d00a3000000480081804800020149009e
:1035a000838149000348a3000f003a000600e000b1
:1035b000090034000603e900000040008180480053
:1035c000020149008381490001003a000003eb0039
:1035d0000348a300f5ff32006022b8000200370064
:1035e00084827200618266007600070003f0a10009
:1035f0000cf0a70003f0a000b20037006401470000
:103600006408e10002003a000df8a300aa003a00a5
:103610003200be001201be00aa0037000000000008
:103620008f1fd1009d0107008f87e9000000e00097
:1036300000000600809feb00980107008f87e900db
:103640000000e000000006002800fa00889fbe008d
:103650008a9fbe008c9fbe0003866b00850007001a
:103660006400e100440032006408e1004a003200d6
:103670006100e100460032006108e10049003200cb
:10368000ec0647006000b8003d02be003d03be00ee
:10369000f48657006011b8003d04be003d05be0031
:1036a0007d0320000b0037000000a0008d06e9001c
:1036b000130032000402420085824a0006034b00d8
:1036c00087834b00000040008180480002014900d0
:1036d000838149000802520089825a000a035b0074
:1036e0008b835b00f0ff3b000802420089824a00a6
:1036f0000a034b008b834b008d06e900edff3a0077
:103700008482720086827200f707b200878272009c
:1037100001003200150020001e0490003e0b9000b6
:1037200006035400e63fb0000368a3000700320020
:103730000000a7000500a0008301d1000281d30092
:103740008180d3000080d3000603e8008301d1000c
:103750000281d3008180d3000080d3000002eb00ff
:103760000482d2001700070003f0a1000cf0a700ac
:1037700003f0a00053003700640247006408e10032
:103780004d0032003400be003401be00f6ff3700a9
:103790006108e100480032006011b8006000b80024
:1037a000f1ff370003ff270002002000fbff370076
:1037b000801feb00390107008f87e9000000e0005f
:1037c00000000600180020005700200008045300e5
:1037d0000d003d000600200097fc2f000740e1008f
:1037e0001e00340084827200610260008301d100f7
:1037f0000281d3008180d3000080d3000804e80058
:10380000f8ff3a00470020006104600005047400de
:10381000040464000d00320061004000e0804800b4
:1038200060014900e081490003b8a50007003200ab
:103830000603e8006538e10004003a008301d10086
:103840000281d3008180d3000080d300f87f200064
:103850000830e10003003500080378006000b8007c
:103860006011b8004433dd00f300b200830173003f
:1038700000000600680447000294be000094be00e9
:10388000fc0447008694be008494be0009007800c2
:103890004b010700080078004901070099007800f3
:1038a000814f70000b003b000800be0024010700a0
:1038b0004f00b10003003700f3ff2700f2ff2f0095
:1038c0006110b9004f06be004f05be004f04be0098
:1038d0000080fa00000006008103780088f70700e6
:1038e0000001be006000b8000478a30013003a0095
:1038f0006220e10015003e000d0039008301d10077
:103900000281d3008180d3008301d1000281d300e2
:103910008180d3008301d1000281d3008180d30054
:103920000538b000c42add00f300b20083817200c4
:1039300007f0a70003f0a00000000600f3ff270037
:10394000f2ff2f006110b900fbff370003ff2700d3
:10395000f7ff37001400fa00889fbe008a9fbe0060
:103960008c9fbe000004be000205be006800470038
:103970000a90be000890be00110107000070a70069
:103980000bf0a1000bf8a30020003a009e09900064
:103990000e099000fe0090006e0090009e029000c4
:1039a0003443200084825200c6ff32000a003c00eb
:1039b000b4fc2f000428e100140034008301d1007e
:1039c0000281d3008180d3000080d3008502e8000b
:1039d000faff3a00bbff3700b40020000428e100e2
:1039e00007003c00000040008180480002014900bf
:1039f000838149008502e900faff3a00b1ff3700f0
:103a00000300280002002000010037006011b80008
:103a10006000b800abff37006011b8000f0137003d
:103a20001400fa00889fbe008a9fbe008c9fbe00d3
:103a3000040678000004be000205be0068004700ce
:103a40000a90be000890be00dd0007006200e100a1
:103a50000800be000a01be00040020000b003a006e
:103a60001e029000e43fb1006e009000fe00900046
:103a70000e0990009e099000f300b20005fe23009d
:103a8000858171000bf0a70003f0a000040e780000
:103a90008cff3700000000002800fa00889fbe005d
:103aa0008a9fbe008c9fbe0003866b0071ff0700db
:103ab0000028a30064003a000128a30067003a0030
:103ac0000008a30062003a000108a30065003a0064
:103ad0001e009000be08900081064000ed3fb1003e
:103ae000f4805700ee019000111ab8008e09900082
:103af000311bb8009e099000311cb800511db80060
:103b0000f485570046000700fe0190003a000700c8
:103b10008b85e8003e0007008e09900040000700fa
:103b2000ee019000340007008b85e80038000700a4
:103b30008e099000400007009e0990001b18b800f5
:103b4000890440000a854800fe0190003400070007
:103b50008b85e80038000700ee0190003000070078
:103b60008e0990001b18b800890440000a8548009f
:103b70000a98a30008003a000402420085824a0025
:103b800006034b0087834b0008044c0089844c00db
:103b90000a054d008d06e9008482720085027300db
:103ba0004c3add0085027200010032001500200051
:103bb000443ade001400b2004538de00cb45dd009b
:103bc0000b007000c540de00cb4ddd008b80700027
:103bd0004549de00cb55dd000b017100c551de000b
:103be0000d037800f7fe070003f0a1000cf0a7001a
:103bf00003f0a00033ff37001b18b8008502400017
:103c000006834800e0834b0060044c000700370047
:103c10001b18b8000603400087834800faff3700ee
:103c20001b18b8008703400008844800e0844c005b
:103c300060054d00000006001b18b8000804400095
:103c400089844800faff37000108a3001aff3a00f0
:103c50005800be005801be00e3ff37000008a30073
:103c600015ff3a0009047800f9ff37000000000052
:103c700007f0a200ecfd370059f707000400be0072
:103c800000000600020ab900001bb9000200b800db
:103c9000810042008100430000000600889fbe00b2
:103ca0008a9fbe008c9fbe000404be000605be00b5
:103cb000809fbe00829fbe002f0007000406780090
:103cc0000800be000a01be002b0007008406780031
:103cd0004f03be004f02be008d4f76007fb09700ad
:103ce00013003300f0ff2f008b8f6b0006003b00aa
:103cf0000d0666000c00a7000a00370007f0a600ba
:103d0000100020000a003700880f5200898f5a00e7
:103d10008a0f5b008b8f5b000300390010002000ce
:103d200001003e000000200007f0a7000000ea00ac
:103d30004f06be004f05be004f04be000000060047
:103d4000e48240001078a3000700320064024000c3
:103d50001178a3003400be001401be00040032003c
:103d60000330a700000006003500be001501be00ac
:103d70000330a0000000060005ff27000582610057
:103d8000070032000428e100010032002400050091
:103d90000600070001003a00440005000408050081
:103da00002000700f9ff3a00140005006f8261006d
:103db0008102700085027100850272000000060019
:103dc000800078005002be005003be004439de007f
:103dd000f700b200f37f2000030161000900320008
:103de0000218e10016003a00850172008301730099
:103df000838173000008200015003a004000200075
:103e00001300370085017200830173008381730002
:103e100005003a0004a8be0006a8be00100020005d
:103e20000b0037000201e9000402420085824a00cb
:103e300006034b0087834b000748a300f9ff3200bd
:103e40000740a00004a8be0006a8be002000200075
:103e5000800098009200980000000600889fbe0035
:103e6000008270000402710004827100240032009c
:103e700036432000c50020008383cf000a003900ac
:103e80000541b1008283cf00070039000541b10030
:103e90008183cf00040039000541b1008083cf0049
:103ea000010039000541b10085c353006022b8000c
:103eb000120032000a003b0084827200610260003e
:103ec0008301d1000281d3008180d3000080d30020
:103ed0000603e8008743e800f7ff3a0007003700d1
:103ee00000004000818048000201490083814900b0
:103ef0000603e9008743e900f9ff3a0031fe0700b5
:083f00004f04be0000000600a2
:020000040000fa
:103f0800434c000045410000524400004154000069
:103f1800410d00000a000000444100005441000027
:103f28002c000000256900002c200000000d000076
:103f38000a000000524f0000572c000053450000b3
:103f4800542c0000320d00000a000000434c000011
:103f58004541000052530000484500004554000008
:103f68000d0a0000004c000041420000454c0000d2
:103f78002c4d0000652e0000466100006e5f0000b9
:103f88004375000072720000656e0000745f0000e7
:103f98004c6900006d690000742c0000204d000081
:103fa800652e0000466100006e5f0000437500004a
:103fb80072720000656e0000745f000046610000c8
:103fc800737400002c2000004d6500002e50000086
:103fd800776d00005f520000657100002c20000022
:103fe8004d6500002e500000776d00005f56000000
:103ff800616c0000756500002c200000302c00006a
:10400800203000002c2000004d6500002e430000e9
:10401800796300006c650000546900006d6500005c
:104028002c200000302c00002c2c00002c2c000030
:104038002c2c00002c4b0000702c00004b69000059
:104048002c4b0000640d00000a00000025750000dc
:104058002c20000000430000454c00004c2c0000c0
:1040680047450000542c0000503200000d0a0000a3
:1040780000430000454c00004c2c00004745000060
:10408800542c0000513200000d0a000000430000cb
:10409800454c00004c2c000047450000542c000003
:1040a800523200000d0a0000004c0000414200009e
:1040b800454c00002c460000414e000020530000f3
:1040c8007065000065640000202800005250000060
:1040d8004d2900002c460000414e00002041000000
:1040e800444300005f4900002c460000414e000098
:1040f8002043000075720000726500006e740000b5
:10410800202800006d410000292c000046410000d5
:104118004e200000506f00007765000072200000fc
:104128002864000065630000696d000069200000d4
:10413800572900002c430000796300006c650000db
:10414800546900006d6500000d0a0000004300007e
:10415800454c00004c2c000047450000542c000042
:10416800465200004f4d00005348000045450000ee
:10417800542c0000536900006d7000006c6500004d
:104188002044000061740000612c0000552c0000e0
:10419800312c000025690000200d00000a000000f5
:1041a800434500004c4c00002c53000045540000cf
:1041b8002c4f00004e5300004845000045540000b5
:1041c8002c53000074650000702000004465000056
:1041d800736300007269000070740000696f00006a
:1041e8006e2c0000492c0000312c000025690000cd
:1041f800200d00000a000000434500004c4c000060
:104208002c470000455400002c460000524f000087
:104218004d53000048450000455400002c53000051
:10422800746500007020000044650000736300009e
:104238007269000070740000696f00006e2c000045
:10424800452c000025690000200d00000a00000030
:10425800434500004c4c00002c530000455400001e
:104268002c4f00004e530000484500004554000004
:104278002c530000696d0000706c00006520000080
:1042880044610000746100002c4200002c330000df
:104298002c250000692000000d0a000000430000e2
:1042a800454c00004c2c000053450000542c0000e5
:1042b8004f4e00005348000045450000542c0000b4
:1042c800536900006d7000006c6500002044000018
:1042d80061740000612c0000422c0000392c0000a1
:1042e80025660000200d00000a000000434500007c
:1042f8004c4c00002c530000455400002c4f00008b
:104308004e53000048450000455400002c5300005f
:10431800696d0000706c00006520000044610000b9
:10432800746100002c4200002c310000302c000089
:1043380025660000200d00000a000000434500002b
:104348004c4c00002c530000455400002c4f00003a
:104358004e53000048450000455400002c5300000f
:10436800696d0000706c0000652000004461000069
:10437800746100002c4200002c310000312c000038
:1043880025660000200d00000a00000043450000db
:104398004c4c00002c530000455400002c4f0000ea
:1043a8004e53000048450000455400002c530000bf
:1043b800696d0000706c0000652000004461000019
:1043c800746100002c4200002c310000322c0000e7
:1043d80025660000200d00000a000000434500008b
:1043e8004c4c00002c530000455400002c4f00009a
:1043f8004e53000048450000455400002c5300006f
:10440800696d0000706c00006520000044610000c8
:10441800746100002c4200002c310000372c000091
:1044280025690000200d00000a0000004345000037
:104438004c4c00002c530000455400002c4f000049
:104448004e53000048450000455400002c4600002b
:10445800414e0000205300007065000065640000b4
:104468002044000061740000612c0000412c000011
:10447800256900002c250000692000000d0a0000b5
:1044880000430000454c00004c2c00005345000040
:10449800542c00004f4e00005348000045450000d2
:1044a800542c0000536900006d7000006c6500001a
:1044b8002044000061740000612c0000422c0000c0
:1044c800323200002c250000662000000d0a000092
:1044d80000430000454c00004c2c000053450000f0
:1044e800542c00004f4e0000534800004545000082
:1044f800542c0000536900006d7000006c650000ca
:104508002044000061740000612c0000422c00006f
:10451800323400002c250000692000000d0a00003c
:1045280000430000454c00004c2c0000534500009f
:10453800542c00004f4e0000534800004545000031
:10454800542c000050720000657300007375000061
:10455800726500002044000061740000612c0000b6
:10456800412c0000256900002c2500006620000071
:104578000d0a000000430000454c00004c2c0000d0
:1045880053450000542c00004f4e000053480000d3
:1045980045450000542c0000566100006c76000070
:1045a80065200000506f0000736900007469000006
:1045b8006f6e00002044000061740000612c000050
:1045c800412c0000256900002c250000692000000e
:1045d8000d0a000000430000454c00004c2c000070
:1045e80053450000542c00004f4e00005348000073
:1045f80045450000542c0000536900006d70000010
:104608006c6500002044000061740000612c00000b
:10461800422c0000323900002c25000066200000e2
:104628000d0a000000430000454c00004c2c00001f
:1046380053450000542c00004f4e00005348000022
:1046480045450000542c0000507200006f620000c5
:104658006520000044610000746100002c410000e6
:104668002c250000692c000025660000200d0000a4
:104678000a000000434500004c4c00002c53000089
:10468800455400002c4f00004e53000048450000e0
:10469800455400002c530000696d0000706c000048
:1046a8006520000044610000746100002c42000095
:1046b8002c330000312c000025660000200d00007e
:1046c8000a000000434500004c4c00002c53000039
:1046d800455400002c4f00004e5300004845000090
:1046e800455400002c500000726f00006265000005
:1046f8002044000061740000612c0000422c00007e
:10470800256900002c250000662000000d0a000025
:1047180000430000454c00004c2c000053450000ad
:10472800542c00004f4e000053480000454500003f
:10473800542c0000536900006d7000006c65000087
:104748002044000061740000612c0000422c00002d
:10475800333300002c250000662000000d0a0000fd
:1047680000430000454c00004c2c0000534500005d
:10477800542c00004f4e00005348000045450000ef
:10478800542c0000507200006f6200006520000089
:1047980044610000746100002c4300002c250000d7
:1047a800692c000025660000200d00000a000000aa
:1047b800434500004c4c00002c53000045540000b9
:1047c8002c4f00004e53000048450000455400009f
:1047d8002c530000696d0000706c0000652000001b
:1047e80044610000746100002c4200002c3300007a
:1047f800352c000025660000200d00000a0000008e
:10480800434500004c4c00002c5300004554000068
:104818002c4f00004e53000048450000455400004e
:104828002c500000726f00006265000020440000f8
:1048380061740000612c0000442c00002569000010
:104848002c250000662000000d0a0000004300002f
:10485800454c00004c2c000053450000542c00002f
:104868004f4e00005348000045450000542c0000fe
:10487800536900006d7000006c6500002044000062
:1048880061740000612c0000422c000034300000ec
:104898002c250000692000000d0a000000430000dc
:1048a800454c00004c2c000053450000542c0000df
:1048b8004f4e00005348000045450000542c0000ae
:1048c800536900006d7000006c6500002044000012
:1048d80061740000612c0000422c00003435000097
:1048e8002c250000692000000d0a0000004300008c
:1048f800454c00004c2c000053450000542c00008f
:104908004f4e00005348000045450000542c00005d
:1049180053740000657000002044000065730000b7
:104928006372000069700000746900006f6e000017
:104938002c4b00002c3100002c25000069200000c1
:104948000d0a000000430000454c00004c2c0000fc
:1049580053450000542c00004f4e000053480000ff
:1049680045450000542c0000536900006d7000009c
:104978006c6500002044000061740000612c000098
:10498800552c0000312c000025690000200d000086
:104998000a000000434500004c4c00002c47000072
:1049a800455400002c460000524f00004d530000b3
:1049b80048450000455400002c530000696d000074
:1049c800706c000065200000446100007461000004
:1049d8002c5500002c310000200d00000a000000ba
:1049e800434500004c4c00002c4700004554000093
:1049f8002c460000524f00004d530000484500006f
:104a0800455400002c4600006f6700006c690000e8
:104a18006f3100002c4100002c25000069200000a7
:104a28000d0a00000000000044650000664d00000b
:104a38006f640000653d000020250000692000002b
:104a4800202000002020000020200000202000005e
:104a58002020000000460000756e0000634d000035
:104a68006f640000653d00002025000069200000fb
:104a7800202000002020000020200000202000002e
:104a88002020000000460000616e00005370000006
:104a980065650000643d00002025000069200000d5
:104aa80020200000202000002020000020200000fe
:104ab8002020000000530000503d00002025000089
:104ac80069200000543d00002569000020200000f6
:104ad80020200000202000002020000020200000ce
:104ae8002020000020200000200000005444000086
:104af800656600004d6f0000646500003d20000001
:104b0800256900002020000020200000202000004f
:104b180020200000202000000054000046750000fe
:104b28006e6300004d6f0000646500003d200000ca
:104b3800256900002020000020200000202000001f
:104b48002020000020200000200000005446000023
:104b5800616e00005370000065650000643d000050
:104b680020250000692000002020000020200000ef
:104b78002020000020200000202000000054000019
:104b8800535000003d20000025690000202000004f
:104b980020500000575200003d2500006920000009
:104ba800202000002020000020200000200000001d
:104bb800545f0000436f00006d7000005f4f0000fd
:104bc800757400003d200000313600002e310000d1
:104bd8003120000027430000005400005f4300001c
:104be8006f6d0000705f000053750000633d0000aa
:104bf80020330000362e0000343200002027000049
:104c080043000000545f0000436f00006e64000022
:104c1800656e0000732e00003d2000003132000058
:104c28002e38000031200000274300000054000007
:104c38005f53000065610000576100007465000063
:104c4800723d0000203600002e350000352000009f
:104c58002743000020000000546500006d7000002c
:104c68005f4100006d6200003d200000252e00001d
:104c780032660000202700004320000020200000aa
:104c88002020000000540000656d0000705f0000e7
:104c98004c690000713d000020310000312e0000f9
:104ca80033320000202700004320000020000000cd
:104cb80050720000657300005f47000061730000d8
:104cc8003d200000372e000038310000204200004f
:104cd8006172000020200000005000007265000092
:104ce800735f00004c690000713d00002032000035
:104cf800362e0000353500002042000061720000a9
:104d080020000000436f00006d7500006e69000010
:104d180063610000746900006f6e0000205300009a
:104d28007461000074750000733a000000430000cd
:104d38005243000020450000727200003a2500002e
:104d480069200000205400006d7400003a2500001e
:104d5800692000002000000046720000616d00001c
:104d68006520000045720000723a00003020000003
:104d78002042000061750000643a00003220000003
:104d8800004d00006f64000042750000733a000097
:104d98005254000055200000446500007669000068
:104da800636500003a33000020000000434c000017
:104db800454100005244000041540000410d0000ec
:104dc8000a00000044410000544100002c0000008b
:104dd800256900002c200000000d00000a000000da
:104de800524f0000572c000053450000542c00007f
:084df800320d00000a0000006a
:020000040000fa
:104e00000200fa00000f78000000eb00107088002c
:104e1000307080000010a100307088001e00780003
:104e200020708800307080000000a0003070880082
:104e30001000200010408800000000000100370032
:104e40000000000030708000620060000000e000a0
:104e500004003a00a0df2000104078000004e000c9
:104e6000f7ff32000228ef00a0df2000104078009a
:104e70000004e00014003200307080000000a10047
:104e800030708800307080000010a1003070880001
:104e900060cf20009040780000bf200010407800d4
:104ea00080cf500008003a0070cf2000904078007a
:104eb00010bf20001040780080cf500002003a0060
:104ec0000040eb0010003700307080000000a100af
:104ed00030708800307080000010a10030708800b1
:104ee000d04680000000e00006003a0090458000b7
:104ef0000000e80090458800c09580000000e800b0
:104f0000c095880010c0b3000080fa0000000600c1
:104f10000e00fa00204798003147980022079800b9
:104f20003307980044079800254f980066079800bb
:104f30000768ef001b00370007c8bf000040e8000b
:104f400007e8b700ae0090006e009000808050002f
:104f50002e409000be01900001017800be409000fc
:104f60003c640200010000004e009000a4ff070016
:104f7000004f78001e4078000004e00009003a006d
:104f8000a0df20008040eb00014878004039280075
:104f900001002000428e0200010000000040eb00f2
:104fa0001200370071802000914078002e48900058
:104fb00080cf5000e0ff3500d04680000000e000c8
:104fc00006003a00804580000000e8008045880027
:104fd000b09580000000e800b0958800a0df2000b8
:104fe0008040eb000148780010c0b3000080fa0058
:104ff000000006000e00fa002047980021079800e4
:105000003207980043079800244f9800354f9800c6
:10501000660798000768ef003300370007c8bf0035
:105020000040e80007e8b700ae0090006e00900076
:10503000808050002e409000be0190000101780059
:10504000be4890003c640200010000004e00900049
:105050006bff0700004f78001e4078000004e0005e
:1050600021003a0080cf20009040780020bf20002f
:105070001040780080cf50001b003a0090cf2000f5
:105080009040780030bf20001040780080cf500062
:1050900015003a00a0cf20009040780040bf2000cb
:1050a0001040780080cf50000f003a00b0cf2000b1
:1050b0009040780050bf20001040780080cf500012
:1050c00009003a00a0df20008040eb000148780092
:1050d0004039280001002000428e0200010000003b
:1050e0000040eb00120037007180200091407800f2
:1050f0002e48900080cf5000c8ff3500d046800079
:105100000000e00006003a00804580000000e80052
:1051100080458800b09580000000e800b0958800c8
:10512000a0df20008040eb000148780010c0b300f1
:105130000080fa00000006000800fa0020479800ee
:1051400021079800320798002e409000004fe90098
:105150009e80fb00200d20000088b9000000780030
:10516000f6004000e02b2100008040001000780095
:105170004200de00614060000004e00028003200d0
:105180002e4090001600200035c0b300441f2000c0
:10519000130020002e01900031c0b3005cff070017
:1051a000104798001e4090000004e00007003a00fd
:1051b000c16f80003e00900001087800a0df200051
:1051c0008040eb0001487800150037009e80fb000e
:1051d000200d20000088b90080007800402d2100bb
:1051e00000804000900078000110a00001087800c5
:1051f0009e80fb00200d20000088b9008000780010
:10520000402d210000804000900078000120a10086
:1052100001087800a0df20008040eb000148780002
:105220000080fa00000006000800fa0020479800fd
:1052300021079800320798002e409000004fe900a7
:105240009e80fb00200d20000088b900000078003f
:10525000f6004000e02b21000080400010007800a4
:105260004200de00614060000004e00028003200df
:105270002e4090001600200035c0b300441f2000cf
:10528000be0190002e01900031c0b30020ff070046
:10529000104798001e4090000004e00005003a000e
:1052a000a0df20008040eb00014878000040eb00c8
:1052b000180037009e80fb00200d20000088b900f8
:1052c00080007800402d2100008040009000780090
:1052d0000110a000010878009e80fb00200d200036
:1052e0000088b90080007800402d21000080400037
:1052f000900078000120a10001087800a0df2000c4
:105300008040eb000148780010c0b3000100370076
:1053100010c0b3000080fa00000006000800fa0088
:105320002047980021079800320798002e409000ef
:10533000004fe9009e80fb00200d20000088b9008e
:1053400000007800f6004000e02b210000804000c3
:10535000100078004200de00614060000004e000c0
:105360001e0032002e4090001600200065c0b300e1
:1053700034c0b300431f20003e019000ae009000f7
:105380001cff0700104798001e409000e14f50009e
:1053900012003a009e80fb00200d20000088b9001a
:1053a00080007800402d21000080400090007800af
:1053b0000110a000010878009e80fb00200d200055
:1053c0000088b90080007800402d21000080400056
:1053d000900078000120a100010878000080fa0008
:1053e000000006000800fa002047980021079800f6
:1053f000320798002e409000004fe9009e80fb008d
:10540000200d20000088b90000007800f600400060
:10541000e02b210000804000100078004200de00f8
:10542000614060000004e0001e0032002e40900049
:105430001600200005c1b30034c0b300431f200094
:105440003e019000ae009000eafe07001047980071
